{
  "_format": "hh-sol-artifact-1",
  "contractName": "Collection",
  "sourceName": "contracts/ERC721-NFT-Collection-withAddCurrency-ERC20.sol",
  "abi": [
    {
      "inputs": [],
      "stateMutability": "nonpayable",
      "type": "constructor"
    },
    {
      "anonymous": false,
      "inputs": [
        {
          "indexed": true,
          "internalType": "address",
          "name": "owner",
          "type": "address"
        },
        {
          "indexed": true,
          "internalType": "address",
          "name": "approved",
          "type": "address"
        },
        {
          "indexed": true,
          "internalType": "uint256",
          "name": "tokenId",
          "type": "uint256"
        }
      ],
      "name": "Approval",
      "type": "event"
    },
    {
      "anonymous": false,
      "inputs": [
        {
          "indexed": true,
          "internalType": "address",
          "name": "owner",
          "type": "address"
        },
        {
          "indexed": true,
          "internalType": "address",
          "name": "operator",
          "type": "address"
        },
        {
          "indexed": false,
          "internalType": "bool",
          "name": "approved",
          "type": "bool"
        }
      ],
      "name": "ApprovalForAll",
      "type": "event"
    },
    {
      "anonymous": false,
      "inputs": [
        {
          "indexed": true,
          "internalType": "address",
          "name": "previousOwner",
          "type": "address"
        },
        {
          "indexed": true,
          "internalType": "address",
          "name": "newOwner",
          "type": "address"
        }
      ],
      "name": "OwnershipTransferred",
      "type": "event"
    },
    {
      "anonymous": false,
      "inputs": [
        {
          "indexed": true,
          "internalType": "address",
          "name": "from",
          "type": "address"
        },
        {
          "indexed": true,
          "internalType": "address",
          "name": "to",
          "type": "address"
        },
        {
          "indexed": true,
          "internalType": "uint256",
          "name": "tokenId",
          "type": "uint256"
        }
      ],
      "name": "Transfer",
      "type": "event"
    },
    {
      "inputs": [
        {
          "internalType": "uint256",
          "name": "",
          "type": "uint256"
        }
      ],
      "name": "AllowedCrypto",
      "outputs": [
        {
          "internalType": "contract IERC20",
          "name": "paytoken",
          "type": "address"
        },
        {
          "internalType": "uint256",
          "name": "costvalue",
          "type": "uint256"
        }
      ],
      "stateMutability": "view",
      "type": "function"
    },
    {
      "inputs": [
        {
          "internalType": "contract IERC20",
          "name": "_paytoken",
          "type": "address"
        },
        {
          "internalType": "uint256",
          "name": "_costvalue",
          "type": "uint256"
        }
      ],
      "name": "addCurrency",
      "outputs": [],
      "stateMutability": "nonpayable",
      "type": "function"
    },
    {
      "inputs": [
        {
          "internalType": "address",
          "name": "to",
          "type": "address"
        },
        {
          "internalType": "uint256",
          "name": "tokenId",
          "type": "uint256"
        }
      ],
      "name": "approve",
      "outputs": [],
      "stateMutability": "nonpayable",
      "type": "function"
    },
    {
      "inputs": [
        {
          "internalType": "address",
          "name": "owner",
          "type": "address"
        }
      ],
      "name": "balanceOf",
      "outputs": [
        {
          "internalType": "uint256",
          "name": "",
          "type": "uint256"
        }
      ],
      "stateMutability": "view",
      "type": "function"
    },
    {
      "inputs": [],
      "name": "baseExtension",
      "outputs": [
        {
          "internalType": "string",
          "name": "",
          "type": "string"
        }
      ],
      "stateMutability": "view",
      "type": "function"
    },
    {
      "inputs": [],
      "name": "baseURI",
      "outputs": [
        {
          "internalType": "string",
          "name": "",
          "type": "string"
        }
      ],
      "stateMutability": "view",
      "type": "function"
    },
    {
      "inputs": [
        {
          "internalType": "uint256",
          "name": "tokenId",
          "type": "uint256"
        }
      ],
      "name": "getApproved",
      "outputs": [
        {
          "internalType": "address",
          "name": "",
          "type": "address"
        }
      ],
      "stateMutability": "view",
      "type": "function"
    },
    {
      "inputs": [
        {
          "internalType": "address",
          "name": "owner",
          "type": "address"
        },
        {
          "internalType": "address",
          "name": "operator",
          "type": "address"
        }
      ],
      "name": "isApprovedForAll",
      "outputs": [
        {
          "internalType": "bool",
          "name": "",
          "type": "bool"
        }
      ],
      "stateMutability": "view",
      "type": "function"
    },
    {
      "inputs": [],
      "name": "maxMintAmount",
      "outputs": [
        {
          "internalType": "uint256",
          "name": "",
          "type": "uint256"
        }
      ],
      "stateMutability": "view",
      "type": "function"
    },
    {
      "inputs": [],
      "name": "maxSupply",
      "outputs": [
        {
          "internalType": "uint256",
          "name": "",
          "type": "uint256"
        }
      ],
      "stateMutability": "view",
      "type": "function"
    },
    {
      "inputs": [
        {
          "internalType": "address",
          "name": "_to",
          "type": "address"
        },
        {
          "internalType": "uint256",
          "name": "_mintAmount",
          "type": "uint256"
        },
        {
          "internalType": "uint256",
          "name": "_pid",
          "type": "uint256"
        }
      ],
      "name": "mint",
      "outputs": [],
      "stateMutability": "payable",
      "type": "function"
    },
    {
      "inputs": [],
      "name": "name",
      "outputs": [
        {
          "internalType": "string",
          "name": "",
          "type": "string"
        }
      ],
      "stateMutability": "view",
      "type": "function"
    },
    {
      "inputs": [],
      "name": "owner",
      "outputs": [
        {
          "internalType": "address",
          "name": "",
          "type": "address"
        }
      ],
      "stateMutability": "view",
      "type": "function"
    },
    {
      "inputs": [
        {
          "internalType": "uint256",
          "name": "tokenId",
          "type": "uint256"
        }
      ],
      "name": "ownerOf",
      "outputs": [
        {
          "internalType": "address",
          "name": "",
          "type": "address"
        }
      ],
      "stateMutability": "view",
      "type": "function"
    },
    {
      "inputs": [
        {
          "internalType": "bool",
          "name": "_state",
          "type": "bool"
        }
      ],
      "name": "pause",
      "outputs": [],
      "stateMutability": "nonpayable",
      "type": "function"
    },
    {
      "inputs": [],
      "name": "paused",
      "outputs": [
        {
          "internalType": "bool",
          "name": "",
          "type": "bool"
        }
      ],
      "stateMutability": "view",
      "type": "function"
    },
    {
      "inputs": [],
      "name": "renounceOwnership",
      "outputs": [],
      "stateMutability": "nonpayable",
      "type": "function"
    },
    {
      "inputs": [
        {
          "internalType": "address",
          "name": "from",
          "type": "address"
        },
        {
          "internalType": "address",
          "name": "to",
          "type": "address"
        },
        {
          "internalType": "uint256",
          "name": "tokenId",
          "type": "uint256"
        }
      ],
      "name": "safeTransferFrom",
      "outputs": [],
      "stateMutability": "nonpayable",
      "type": "function"
    },
    {
      "inputs": [
        {
          "internalType": "address",
          "name": "from",
          "type": "address"
        },
        {
          "internalType": "address",
          "name": "to",
          "type": "address"
        },
        {
          "internalType": "uint256",
          "name": "tokenId",
          "type": "uint256"
        },
        {
          "internalType": "bytes",
          "name": "data",
          "type": "bytes"
        }
      ],
      "name": "safeTransferFrom",
      "outputs": [],
      "stateMutability": "nonpayable",
      "type": "function"
    },
    {
      "inputs": [
        {
          "internalType": "address",
          "name": "operator",
          "type": "address"
        },
        {
          "internalType": "bool",
          "name": "approved",
          "type": "bool"
        }
      ],
      "name": "setApprovalForAll",
      "outputs": [],
      "stateMutability": "nonpayable",
      "type": "function"
    },
    {
      "inputs": [
        {
          "internalType": "string",
          "name": "_newBaseExtension",
          "type": "string"
        }
      ],
      "name": "setBaseExtension",
      "outputs": [],
      "stateMutability": "nonpayable",
      "type": "function"
    },
    {
      "inputs": [
        {
          "internalType": "string",
          "name": "_newBaseURI",
          "type": "string"
        }
      ],
      "name": "setBaseURI",
      "outputs": [],
      "stateMutability": "nonpayable",
      "type": "function"
    },
    {
      "inputs": [
        {
          "internalType": "uint256",
          "name": "_newmaxMintAmount",
          "type": "uint256"
        }
      ],
      "name": "setmaxMintAmount",
      "outputs": [],
      "stateMutability": "nonpayable",
      "type": "function"
    },
    {
      "inputs": [
        {
          "internalType": "bytes4",
          "name": "interfaceId",
          "type": "bytes4"
        }
      ],
      "name": "supportsInterface",
      "outputs": [
        {
          "internalType": "bool",
          "name": "",
          "type": "bool"
        }
      ],
      "stateMutability": "view",
      "type": "function"
    },
    {
      "inputs": [],
      "name": "symbol",
      "outputs": [
        {
          "internalType": "string",
          "name": "",
          "type": "string"
        }
      ],
      "stateMutability": "view",
      "type": "function"
    },
    {
      "inputs": [
        {
          "internalType": "uint256",
          "name": "index",
          "type": "uint256"
        }
      ],
      "name": "tokenByIndex",
      "outputs": [
        {
          "internalType": "uint256",
          "name": "",
          "type": "uint256"
        }
      ],
      "stateMutability": "view",
      "type": "function"
    },
    {
      "inputs": [
        {
          "internalType": "address",
          "name": "owner",
          "type": "address"
        },
        {
          "internalType": "uint256",
          "name": "index",
          "type": "uint256"
        }
      ],
      "name": "tokenOfOwnerByIndex",
      "outputs": [
        {
          "internalType": "uint256",
          "name": "",
          "type": "uint256"
        }
      ],
      "stateMutability": "view",
      "type": "function"
    },
    {
      "inputs": [
        {
          "internalType": "uint256",
          "name": "tokenId",
          "type": "uint256"
        }
      ],
      "name": "tokenURI",
      "outputs": [
        {
          "internalType": "string",
          "name": "",
          "type": "string"
        }
      ],
      "stateMutability": "view",
      "type": "function"
    },
    {
      "inputs": [],
      "name": "totalSupply",
      "outputs": [
        {
          "internalType": "uint256",
          "name": "",
          "type": "uint256"
        }
      ],
      "stateMutability": "view",
      "type": "function"
    },
    {
      "inputs": [
        {
          "internalType": "address",
          "name": "from",
          "type": "address"
        },
        {
          "internalType": "address",
          "name": "to",
          "type": "address"
        },
        {
          "internalType": "uint256",
          "name": "tokenId",
          "type": "uint256"
        }
      ],
      "name": "transferFrom",
      "outputs": [],
      "stateMutability": "nonpayable",
      "type": "function"
    },
    {
      "inputs": [
        {
          "internalType": "address",
          "name": "newOwner",
          "type": "address"
        }
      ],
      "name": "transferOwnership",
      "outputs": [],
      "stateMutability": "nonpayable",
      "type": "function"
    },
    {
      "inputs": [
        {
          "internalType": "address",
          "name": "_owner",
          "type": "address"
        }
      ],
      "name": "walletOfOwner",
      "outputs": [
        {
          "internalType": "uint256[]",
          "name": "",
          "type": "uint256[]"
        }
      ],
      "stateMutability": "view",
      "type": "function"
    },
    {
      "inputs": [
        {
          "internalType": "uint256",
          "name": "_pid",
          "type": "uint256"
        }
      ],
      "name": "withdraw",
      "outputs": [],
      "stateMutability": "payable",
      "type": "function"
    }
  ],
  "bytecode": "0x60c06040526005608081905264173539b7b760d91b60a09081526200002891600d91906200013b565b506103e8600e556005600f556010805460ff191690553480156200004b57600080fd5b50604080518082018252601681527f4e657432446576204e465420436f6c6c656374696f6e00000000000000000000602080830191825283518085019094526003845262138c9160ea1b908401528151919291620000ac916000916200013b565b508051620000c29060019060208401906200013b565b505050620000df620000d9620000e560201b60201c565b620000e9565b6200021e565b3390565b600a80546001600160a01b038381166001600160a01b0319831681179093556040519116919082907f8be0079c531659141344cd1fd0a4f28419497f9722a3daafe3b4186f6b6457e090600090a35050565b8280546200014990620001e1565b90600052602060002090601f0160209004810192826200016d5760008555620001b8565b82601f106200018857805160ff1916838001178555620001b8565b82800160010185558215620001b8579182015b82811115620001b85782518255916020019190600101906200019b565b50620001c6929150620001ca565b5090565b5b80821115620001c65760008155600101620001cb565b600181811c90821680620001f657607f821691505b602082108114156200021857634e487b7160e01b600052602260045260246000fd5b50919050565b6125ce806200022e6000396000f3fe6080604052600436106101ee5760003560e01c80635c975abb1161010d57806395d89b41116100a0578063c87b56dd1161006f578063c87b56dd14610577578063d5abeb0114610597578063da3ef23f146105ad578063e985e9c5146105cd578063f2fde38b1461061657600080fd5b806395d89b411461050d578063a22cb46514610522578063b88d4fde14610542578063c66828621461056257600080fd5b806370a08231116100dc57806370a082311461049a578063715018a6146104ba5780637f00c7a6146104cf5780638da5cb5b146104ef57600080fd5b80635c975abb1461042b5780636352211e14610445578063690e4fc3146104655780636c0360eb1461048557600080fd5b806323b872dd1161018557806342842e0e1161015457806342842e0e1461039e578063438b6300146103be5780634f6ccce7146103eb57806355f804b31461040b57600080fd5b806323b872dd1461030c57806326c91cad1461032c5780632e1a7d4d1461036b5780632f745c591461037e57600080fd5b8063095ea7b3116101c1578063095ea7b3146102a4578063156e29f6146102c457806318160ddd146102d7578063239c70ae146102f657600080fd5b806301ffc9a7146101f357806302329a291461022857806306fdde031461024a578063081812fc1461026c575b600080fd5b3480156101ff57600080fd5b5061021361020e36600461211a565b610636565b60405190151581526020015b60405180910390f35b34801561023457600080fd5b506102486102433660046120e2565b610661565b005b34801561025657600080fd5b5061025f61067c565b60405161021f9190612337565b34801561027857600080fd5b5061028c610287366004612198565b61070e565b6040516001600160a01b03909116815260200161021f565b3480156102b057600080fd5b506102486102bf366004612083565b610735565b6102486102d23660046120ae565b610850565b3480156102e357600080fd5b506008545b60405190815260200161021f565b34801561030257600080fd5b506102e8600f5481565b34801561031857600080fd5b50610248610327366004611f99565b610a24565b34801561033857600080fd5b5061034c610347366004612198565b610a55565b604080516001600160a01b03909316835260208301919091520161021f565b610248610379366004612198565b610a8d565b34801561038a57600080fd5b506102e8610399366004612083565b610bd3565b3480156103aa57600080fd5b506102486103b9366004611f99565b610c69565b3480156103ca57600080fd5b506103de6103d9366004611f45565b610c84565b60405161021f91906122f3565b3480156103f757600080fd5b506102e8610406366004612198565b610d42565b34801561041757600080fd5b50610248610426366004612152565b610de3565b34801561043757600080fd5b506010546102139060ff1681565b34801561045157600080fd5b5061028c610460366004612198565b610e02565b34801561047157600080fd5b50610248610480366004612083565b610e62565b34801561049157600080fd5b5061025f610eff565b3480156104a657600080fd5b506102e86104b5366004611f45565b610f8d565b3480156104c657600080fd5b50610248611013565b3480156104db57600080fd5b506102486104ea366004612198565b611027565b3480156104fb57600080fd5b50600a546001600160a01b031661028c565b34801561051957600080fd5b5061025f611034565b34801561052e57600080fd5b5061024861053d366004612056565b611043565b34801561054e57600080fd5b5061024861055d366004611fd9565b61104e565b34801561056e57600080fd5b5061025f611080565b34801561058357600080fd5b5061025f610592366004612198565b61108d565b3480156105a357600080fd5b506102e8600e5481565b3480156105b957600080fd5b506102486105c8366004612152565b61116b565b3480156105d957600080fd5b506102136105e8366004611f61565b6001600160a01b03918216600090815260056020908152604080832093909416825291909152205460ff1690565b34801561062257600080fd5b50610248610631366004611f45565b611186565b60006001600160e01b0319821663780e9d6360e01b148061065b575061065b826111ff565b92915050565b61066961124f565b6010805460ff1916911515919091179055565b60606000805461068b906124a8565b80601f01602080910402602001604051908101604052809291908181526020018280546106b7906124a8565b80156107045780601f106106d957610100808354040283529160200191610704565b820191906000526020600020905b8154815290600101906020018083116106e757829003601f168201915b5050505050905090565b6000610719826112a9565b506000908152600460205260409020546001600160a01b031690565b600061074082610e02565b9050806001600160a01b0316836001600160a01b031614156107b35760405162461bcd60e51b815260206004820152602160248201527f4552433732313a20617070726f76616c20746f2063757272656e74206f776e656044820152603960f91b60648201526084015b60405180910390fd5b336001600160a01b03821614806107cf57506107cf81336105e8565b6108415760405162461bcd60e51b815260206004820152603d60248201527f4552433732313a20617070726f76652063616c6c6572206973206e6f7420746f60448201527f6b656e206f776e6572206f7220617070726f76656420666f7220616c6c00000060648201526084016107aa565b61084b8383611308565b505050565b6000600b828154811061087357634e487b7160e01b600052603260045260246000fd5b600091825260208220600290910201805460018201549193506001600160a01b03169161089f60085490565b60105490915060ff16156108b257600080fd5b600086116108bf57600080fd5b600f548611156108ce57600080fd5b600e546108db878361242e565b11156108e657600080fd5b600a546001600160a01b03163314610964576109028683612446565b34146109645760405162461bcd60e51b815260206004820152602b60248201527f4e6f7420656e6f7567682062616c616e636520746f20636f6d706c657465207460448201526a3930b739b0b1ba34b7b71760a91b60648201526084016107aa565b60015b868111610a1a576040516323b872dd60e01b8152336004820152306024820152604481018490526001600160a01b038516906323b872dd90606401602060405180830381600087803b1580156109bc57600080fd5b505af11580156109d0573d6000803e3d6000fd5b505050506040513d601f19601f820116820180604052508101906109f491906120fe565b50610a0888610a03838561242e565b611376565b80610a12816124e3565b915050610967565b5050505050505050565b610a2e3382611390565b610a4a5760405162461bcd60e51b81526004016107aa9061234a565b61084b83838361140f565b600b8181548110610a6557600080fd5b6000918252602090912060029091020180546001909101546001600160a01b03909116915082565b610a9561124f565b6000600b8281548110610ab857634e487b7160e01b600052603260045260246000fd5b6000918252602090912060029091020180546040516370a0823160e01b81523060048201529192506001600160a01b031690819063a9059cbb90339083906370a082319060240160206040518083038186803b158015610b1757600080fd5b505afa158015610b2b573d6000803e3d6000fd5b505050506040513d601f19601f82011682018060405250810190610b4f91906121b0565b6040516001600160e01b031960e085901b1681526001600160a01b0390921660048301526024820152604401602060405180830381600087803b158015610b9557600080fd5b505af1158015610ba9573d6000803e3d6000fd5b505050506040513d601f19601f82011682018060405250810190610bcd91906120fe565b50505050565b6000610bde83610f8d565b8210610c405760405162461bcd60e51b815260206004820152602b60248201527f455243373231456e756d657261626c653a206f776e657220696e646578206f7560448201526a74206f6620626f756e647360a81b60648201526084016107aa565b506001600160a01b03919091166000908152600660209081526040808320938352929052205490565b61084b8383836040518060200160405280600081525061104e565b60606000610c9183610f8d565b905060008167ffffffffffffffff811115610cbc57634e487b7160e01b600052604160045260246000fd5b604051908082528060200260200182016040528015610ce5578160200160208202803683370190505b50905060005b82811015610d3a57610cfd8582610bd3565b828281518110610d1d57634e487b7160e01b600052603260045260246000fd5b602090810291909101015280610d32816124e3565b915050610ceb565b509392505050565b6000610d4d60085490565b8210610db05760405162461bcd60e51b815260206004820152602c60248201527f455243373231456e756d657261626c653a20676c6f62616c20696e646578206f60448201526b7574206f6620626f756e647360a01b60648201526084016107aa565b60088281548110610dd157634e487b7160e01b600052603260045260246000fd5b90600052602060002001549050919050565b610deb61124f565b8051610dfe90600c906020840190611e36565b5050565b6000818152600260205260408120546001600160a01b03168061065b5760405162461bcd60e51b8152602060048201526018602482015277115490cdcc8c4e881a5b9d985b1a59081d1bdad95b88125160421b60448201526064016107aa565b610e6a61124f565b604080518082019091526001600160a01b03928316815260208101918252600b805460018101825560009190915290517f0175b7a638427703f0dbe7bb9bbf987a2551717b34e79f33b5b1008d1fa01db9600290920291820180546001600160a01b0319169190941617909255517f0175b7a638427703f0dbe7bb9bbf987a2551717b34e79f33b5b1008d1fa01dba90910155565b600c8054610f0c906124a8565b80601f0160208091040260200160405190810160405280929190818152602001828054610f38906124a8565b8015610f855780601f10610f5a57610100808354040283529160200191610f85565b820191906000526020600020905b815481529060010190602001808311610f6857829003601f168201915b505050505081565b60006001600160a01b038216610ff75760405162461bcd60e51b815260206004820152602960248201527f4552433732313a2061646472657373207a65726f206973206e6f7420612076616044820152683634b21037bbb732b960b91b60648201526084016107aa565b506001600160a01b031660009081526003602052604090205490565b61101b61124f565b6110256000611580565b565b61102f61124f565b600f55565b60606001805461068b906124a8565b610dfe3383836115d2565b6110583383611390565b6110745760405162461bcd60e51b81526004016107aa9061234a565b610bcd848484846116a1565b600d8054610f0c906124a8565b6000818152600260205260409020546060906001600160a01b031661110c5760405162461bcd60e51b815260206004820152602f60248201527f4552433732314d657461646174613a2055524920717565727920666f72206e6f60448201526e3732bc34b9ba32b73a103a37b5b2b760891b60648201526084016107aa565b60006111166116d4565b905060008151116111365760405180602001604052806000815250611164565b80611140846116f4565b600d604051602001611154939291906121f4565b6040516020818303038152906040525b9392505050565b61117361124f565b8051610dfe90600d906020840190611e36565b61118e61124f565b6001600160a01b0381166111f35760405162461bcd60e51b815260206004820152602660248201527f4f776e61626c653a206e6577206f776e657220697320746865207a65726f206160448201526564647265737360d01b60648201526084016107aa565b6111fc81611580565b50565b60006001600160e01b031982166380ac58cd60e01b148061123057506001600160e01b03198216635b5e139f60e01b145b8061065b57506301ffc9a760e01b6001600160e01b031983161461065b565b600a546001600160a01b031633146110255760405162461bcd60e51b815260206004820181905260248201527f4f776e61626c653a2063616c6c6572206973206e6f7420746865206f776e657260448201526064016107aa565b6000818152600260205260409020546001600160a01b03166111fc5760405162461bcd60e51b8152602060048201526018602482015277115490cdcc8c4e881a5b9d985b1a59081d1bdad95b88125160421b60448201526064016107aa565b600081815260046020526040902080546001600160a01b0319166001600160a01b038416908117909155819061133d82610e02565b6001600160a01b03167f8c5be1e5ebec7d5bd14f71427d1e84f3dd0314c0f7b2291e5b200ac8c7c3b92560405160405180910390a45050565b610dfe828260405180602001604052806000815250611797565b60008061139c83610e02565b9050806001600160a01b0316846001600160a01b031614806113e357506001600160a01b0380821660009081526005602090815260408083209388168352929052205460ff165b806114075750836001600160a01b03166113fc8461070e565b6001600160a01b0316145b949350505050565b826001600160a01b031661142282610e02565b6001600160a01b0316146114485760405162461bcd60e51b81526004016107aa906123e9565b6001600160a01b0382166114aa5760405162461bcd60e51b8152602060048201526024808201527f4552433732313a207472616e7366657220746f20746865207a65726f206164646044820152637265737360e01b60648201526084016107aa565b6114b783838360016117ca565b826001600160a01b03166114ca82610e02565b6001600160a01b0316146114f05760405162461bcd60e51b81526004016107aa906123e9565b600081815260046020908152604080832080546001600160a01b03199081169091556001600160a01b0387811680865260038552838620805460001901905590871680865283862080546001019055868652600290945282852080549092168417909155905184937fddf252ad1be2c89b69c2b068fc378daa952ba7f163c4a11628f55a4df523b3ef91a4505050565b600a80546001600160a01b038381166001600160a01b0319831681179093556040519116919082907f8be0079c531659141344cd1fd0a4f28419497f9722a3daafe3b4186f6b6457e090600090a35050565b816001600160a01b0316836001600160a01b031614156116345760405162461bcd60e51b815260206004820152601960248201527f4552433732313a20617070726f766520746f2063616c6c65720000000000000060448201526064016107aa565b6001600160a01b03838116600081815260056020908152604080832094871680845294825291829020805460ff191686151590811790915591519182527f17307eab39ab6107e8899845ad3d59bd9653f200f220920489ca2b5937696c31910160405180910390a3505050565b6116ac84848461140f565b6116b8848484846118fe565b610bcd5760405162461bcd60e51b81526004016107aa90612397565b606060405180606001604052806035815260200161256460359139905090565b6060600061170183611a0b565b600101905060008167ffffffffffffffff81111561172f57634e487b7160e01b600052604160045260246000fd5b6040519080825280601f01601f191660200182016040528015611759576020820181803683370190505b5090508181016020015b600019016f181899199a1a9b1b9c1cb0b131b232b360811b600a86061a8153600a850494508461179257610d3a565b611763565b6117a18383611ae3565b6117ae60008484846118fe565b61084b5760405162461bcd60e51b81526004016107aa90612397565b60018111156118395760405162461bcd60e51b815260206004820152603560248201527f455243373231456e756d657261626c653a20636f6e7365637574697665207472604482015274185b9cd9995c9cc81b9bdd081cdd5c1c1bdc9d1959605a1b60648201526084016107aa565b816001600160a01b0385166118955761189081600880546000838152600960205260408120829055600182018355919091527ff3f7a9fe364faab93b216da50a3214154f22a0a2b415b23a84c8169e8b636ee30155565b6118b8565b836001600160a01b0316856001600160a01b0316146118b8576118b88582611c7c565b6001600160a01b0384166118d4576118cf81611d19565b6118f7565b846001600160a01b0316846001600160a01b0316146118f7576118f78482611df2565b5050505050565b60006001600160a01b0384163b15611a0057604051630a85bd0160e11b81526001600160a01b0385169063150b7a02906119429033908990889088906004016122b6565b602060405180830381600087803b15801561195c57600080fd5b505af192505050801561198c575060408051601f3d908101601f1916820190925261198991810190612136565b60015b6119e6573d8080156119ba576040519150601f19603f3d011682016040523d82523d6000602084013e6119bf565b606091505b5080516119de5760405162461bcd60e51b81526004016107aa90612397565b805181602001fd5b6001600160e01b031916630a85bd0160e11b149050611407565b506001949350505050565b60008072184f03e93ff9f4daa797ed6e38ed64bf6a1f0160401b8310611a4a5772184f03e93ff9f4daa797ed6e38ed64bf6a1f0160401b830492506040015b6d04ee2d6d415b85acef81000000008310611a76576d04ee2d6d415b85acef8100000000830492506020015b662386f26fc100008310611a9457662386f26fc10000830492506010015b6305f5e1008310611aac576305f5e100830492506008015b6127108310611ac057612710830492506004015b60648310611ad2576064830492506002015b600a831061065b5760010192915050565b6001600160a01b038216611b395760405162461bcd60e51b815260206004820181905260248201527f4552433732313a206d696e7420746f20746865207a65726f206164647265737360448201526064016107aa565b6000818152600260205260409020546001600160a01b031615611b9e5760405162461bcd60e51b815260206004820152601c60248201527f4552433732313a20746f6b656e20616c7265616479206d696e7465640000000060448201526064016107aa565b611bac6000838360016117ca565b6000818152600260205260409020546001600160a01b031615611c115760405162461bcd60e51b815260206004820152601c60248201527f4552433732313a20746f6b656e20616c7265616479206d696e7465640000000060448201526064016107aa565b6001600160a01b038216600081815260036020908152604080832080546001019055848352600290915280822080546001600160a01b0319168417905551839291907fddf252ad1be2c89b69c2b068fc378daa952ba7f163c4a11628f55a4df523b3ef908290a45050565b60006001611c8984610f8d565b611c939190612465565b600083815260076020526040902054909150808214611ce6576001600160a01b03841660009081526006602090815260408083208584528252808320548484528184208190558352600790915290208190555b5060009182526007602090815260408084208490556001600160a01b039094168352600681528383209183525290812055565b600854600090611d2b90600190612465565b60008381526009602052604081205460088054939450909284908110611d6157634e487b7160e01b600052603260045260246000fd5b906000526020600020015490508060088381548110611d9057634e487b7160e01b600052603260045260246000fd5b6000918252602080832090910192909255828152600990915260408082208490558582528120556008805480611dd657634e487b7160e01b600052603160045260246000fd5b6001900381819060005260206000200160009055905550505050565b6000611dfd83610f8d565b6001600160a01b039093166000908152600660209081526040808320868452825280832085905593825260079052919091209190915550565b828054611e42906124a8565b90600052602060002090601f016020900481019282611e645760008555611eaa565b82601f10611e7d57805160ff1916838001178555611eaa565b82800160010185558215611eaa579182015b82811115611eaa578251825591602001919060010190611e8f565b50611eb6929150611eba565b5090565b5b80821115611eb65760008155600101611ebb565b600067ffffffffffffffff80841115611eea57611eea612514565b604051601f8501601f19908116603f01168101908282118183101715611f1257611f12612514565b81604052809350858152868686011115611f2b57600080fd5b858560208301376000602087830101525050509392505050565b600060208284031215611f56578081fd5b81356111648161252a565b60008060408385031215611f73578081fd5b8235611f7e8161252a565b91506020830135611f8e8161252a565b809150509250929050565b600080600060608486031215611fad578081fd5b8335611fb88161252a565b92506020840135611fc88161252a565b929592945050506040919091013590565b60008060008060808587031215611fee578081fd5b8435611ff98161252a565b935060208501356120098161252a565b925060408501359150606085013567ffffffffffffffff81111561202b578182fd5b8501601f8101871361203b578182fd5b61204a87823560208401611ecf565b91505092959194509250565b60008060408385031215612068578182fd5b82356120738161252a565b91506020830135611f8e8161253f565b60008060408385031215612095578182fd5b82356120a08161252a565b946020939093013593505050565b6000806000606084860312156120c2578283fd5b83356120cd8161252a565b95602085013595506040909401359392505050565b6000602082840312156120f3578081fd5b81356111648161253f565b60006020828403121561210f578081fd5b81516111648161253f565b60006020828403121561212b578081fd5b81356111648161254d565b600060208284031215612147578081fd5b81516111648161254d565b600060208284031215612163578081fd5b813567ffffffffffffffff811115612179578182fd5b8201601f81018413612189578182fd5b61140784823560208401611ecf565b6000602082840312156121a9578081fd5b5035919050565b6000602082840312156121c1578081fd5b5051919050565b600081518084526121e081602086016020860161247c565b601f01601f19169290920160200192915050565b6000845160206122078285838a0161247c565b85519184019161221a8184848a0161247c565b85549201918390600181811c908083168061223657607f831692505b85831081141561225457634e487b7160e01b88526022600452602488fd5b8080156122685760018114612279576122a5565b60ff198516885283880195506122a5565b60008b815260209020895b8581101561229d5781548a820152908401908801612284565b505083880195505b50939b9a5050505050505050505050565b6001600160a01b03858116825284166020820152604081018390526080606082018190526000906122e9908301846121c8565b9695505050505050565b6020808252825182820181905260009190848201906040850190845b8181101561232b5783518352928401929184019160010161230f565b50909695505050505050565b60208152600061116460208301846121c8565b6020808252602d908201527f4552433732313a2063616c6c6572206973206e6f7420746f6b656e206f776e6560408201526c1c881bdc88185c1c1c9bdd9959609a1b606082015260800190565b60208082526032908201527f4552433732313a207472616e7366657220746f206e6f6e20455243373231526560408201527131b2b4bb32b91034b6b83632b6b2b73a32b960711b606082015260800190565b60208082526025908201527f4552433732313a207472616e736665722066726f6d20696e636f72726563742060408201526437bbb732b960d91b606082015260800190565b60008219821115612441576124416124fe565b500190565b6000816000190483118215151615612460576124606124fe565b500290565b600082821015612477576124776124fe565b500390565b60005b8381101561249757818101518382015260200161247f565b83811115610bcd5750506000910152565b600181811c908216806124bc57607f821691505b602082108114156124dd57634e487b7160e01b600052602260045260246000fd5b50919050565b60006000198214156124f7576124f76124fe565b5060010190565b634e487b7160e01b600052601160045260246000fd5b634e487b7160e01b600052604160045260246000fd5b6001600160a01b03811681146111fc57600080fd5b80151581146111fc57600080fd5b6001600160e01b0319811681146111fc57600080fdfe697066733a2f2f4545354d6d715670354d6d715670375a524d4242697a6963566839666963566839666a556f66576963566839662fa2646970667358221220983c77008d14a9914b6d1887e167d04e263981f528aafa465c46afc7fde060f364736f6c63430008040033",
  "linkReferences": {},
  "deployedLinkReferences": {}
}