{
  "_format": "hh-sol-artifact-1",
  "contractName": "FanTiger",
  "sourceName": "contracts/FanTiger.sol",
  "abi": [
    {
      "anonymous": false,
      "inputs": [
        {
          "indexed": true,
          "internalType": "address",
          "name": "account",
          "type": "address"
        },
        {
          "indexed": true,
          "internalType": "address",
          "name": "operator",
          "type": "address"
        },
        {
          "indexed": false,
          "internalType": "bool",
          "name": "approved",
          "type": "bool"
        }
      ],
      "name": "ApprovalForAll",
      "type": "event"
    },
    {
      "anonymous": false,
      "inputs": [
        {
          "indexed": true,
          "internalType": "address",
          "name": "marketPlaceAddress",
          "type": "address"
        }
      ],
      "name": "CreatedMarketPlace",
      "type": "event"
    },
    {
      "anonymous": false,
      "inputs": [
        {
          "indexed": false,
          "internalType": "uint8",
          "name": "version",
          "type": "uint8"
        }
      ],
      "name": "Initialized",
      "type": "event"
    },
    {
      "anonymous": false,
      "inputs": [
        {
          "indexed": true,
          "internalType": "uint256",
          "name": "tierID",
          "type": "uint256"
        }
      ],
      "name": "NFTTierExhausted",
      "type": "event"
    },
    {
      "anonymous": false,
      "inputs": [
        {
          "indexed": true,
          "internalType": "uint256",
          "name": "tierID",
          "type": "uint256"
        }
      ],
      "name": "NewNftTierCreated",
      "type": "event"
    },
    {
      "anonymous": false,
      "inputs": [
        {
          "indexed": true,
          "internalType": "address",
          "name": "previousOwner",
          "type": "address"
        },
        {
          "indexed": true,
          "internalType": "address",
          "name": "newOwner",
          "type": "address"
        }
      ],
      "name": "OwnershipTransferred",
      "type": "event"
    },
    {
      "anonymous": false,
      "inputs": [
        {
          "indexed": false,
          "internalType": "address",
          "name": "account",
          "type": "address"
        }
      ],
      "name": "Paused",
      "type": "event"
    },
    {
      "anonymous": false,
      "inputs": [
        {
          "indexed": true,
          "internalType": "address",
          "name": "marketPlaceAddress",
          "type": "address"
        }
      ],
      "name": "RemovedMarketPlace",
      "type": "event"
    },
    {
      "anonymous": false,
      "inputs": [
        {
          "indexed": false,
          "internalType": "uint256",
          "name": "tierID",
          "type": "uint256"
        },
        {
          "indexed": false,
          "internalType": "string",
          "name": "tierURI",
          "type": "string"
        }
      ],
      "name": "TierURI",
      "type": "event"
    },
    {
      "anonymous": false,
      "inputs": [
        {
          "indexed": true,
          "internalType": "address",
          "name": "operator",
          "type": "address"
        },
        {
          "indexed": true,
          "internalType": "address",
          "name": "from",
          "type": "address"
        },
        {
          "indexed": true,
          "internalType": "address",
          "name": "to",
          "type": "address"
        },
        {
          "indexed": false,
          "internalType": "uint256[]",
          "name": "ids",
          "type": "uint256[]"
        },
        {
          "indexed": false,
          "internalType": "uint256[]",
          "name": "values",
          "type": "uint256[]"
        }
      ],
      "name": "TransferBatch",
      "type": "event"
    },
    {
      "anonymous": false,
      "inputs": [
        {
          "indexed": true,
          "internalType": "address",
          "name": "operator",
          "type": "address"
        },
        {
          "indexed": true,
          "internalType": "address",
          "name": "from",
          "type": "address"
        },
        {
          "indexed": true,
          "internalType": "address",
          "name": "to",
          "type": "address"
        },
        {
          "indexed": false,
          "internalType": "uint256",
          "name": "id",
          "type": "uint256"
        },
        {
          "indexed": false,
          "internalType": "uint256",
          "name": "value",
          "type": "uint256"
        }
      ],
      "name": "TransferSingle",
      "type": "event"
    },
    {
      "anonymous": false,
      "inputs": [
        {
          "indexed": false,
          "internalType": "string",
          "name": "value",
          "type": "string"
        },
        {
          "indexed": true,
          "internalType": "uint256",
          "name": "id",
          "type": "uint256"
        }
      ],
      "name": "URI",
      "type": "event"
    },
    {
      "anonymous": false,
      "inputs": [
        {
          "indexed": false,
          "internalType": "address",
          "name": "account",
          "type": "address"
        }
      ],
      "name": "Unpaused",
      "type": "event"
    },
    {
      "inputs": [
        {
          "internalType": "address",
          "name": "marketPlaceAddress",
          "type": "address"
        }
      ],
      "name": "addMarketPlaceAddress",
      "outputs": [],
      "stateMutability": "nonpayable",
      "type": "function"
    },
    {
      "inputs": [
        {
          "internalType": "address",
          "name": "account",
          "type": "address"
        },
        {
          "internalType": "uint256",
          "name": "id",
          "type": "uint256"
        }
      ],
      "name": "balanceOf",
      "outputs": [
        {
          "internalType": "uint256",
          "name": "",
          "type": "uint256"
        }
      ],
      "stateMutability": "view",
      "type": "function"
    },
    {
      "inputs": [
        {
          "internalType": "address[]",
          "name": "accounts",
          "type": "address[]"
        },
        {
          "internalType": "uint256[]",
          "name": "ids",
          "type": "uint256[]"
        }
      ],
      "name": "balanceOfBatch",
      "outputs": [
        {
          "internalType": "uint256[]",
          "name": "",
          "type": "uint256[]"
        }
      ],
      "stateMutability": "view",
      "type": "function"
    },
    {
      "inputs": [
        {
          "internalType": "address",
          "name": "mintWalletAddress",
          "type": "address"
        },
        {
          "internalType": "uint256",
          "name": "tierID",
          "type": "uint256"
        },
        {
          "internalType": "uint256[]",
          "name": "nftIDs",
          "type": "uint256[]"
        },
        {
          "internalType": "bytes",
          "name": "data",
          "type": "bytes"
        }
      ],
      "name": "batchMintNFTToWallet",
      "outputs": [],
      "stateMutability": "nonpayable",
      "type": "function"
    },
    {
      "inputs": [
        {
          "internalType": "uint256",
          "name": "tierID",
          "type": "uint256"
        },
        {
          "internalType": "uint256",
          "name": "maxSupply",
          "type": "uint256"
        }
      ],
      "name": "createNewNFTTier",
      "outputs": [],
      "stateMutability": "nonpayable",
      "type": "function"
    },
    {
      "inputs": [
        {
          "internalType": "address",
          "name": "marketPlaceAddress",
          "type": "address"
        }
      ],
      "name": "deleteMarketPlaceAddress",
      "outputs": [],
      "stateMutability": "nonpayable",
      "type": "function"
    },
    {
      "inputs": [
        {
          "internalType": "uint128",
          "name": "tierID",
          "type": "uint128"
        }
      ],
      "name": "getTierUri",
      "outputs": [
        {
          "internalType": "string",
          "name": "",
          "type": "string"
        }
      ],
      "stateMutability": "view",
      "type": "function"
    },
    {
      "inputs": [
        {
          "internalType": "string",
          "name": "nftMetadataURI",
          "type": "string"
        }
      ],
      "name": "initialize",
      "outputs": [],
      "stateMutability": "nonpayable",
      "type": "function"
    },
    {
      "inputs": [
        {
          "internalType": "address",
          "name": "_owner",
          "type": "address"
        },
        {
          "internalType": "address",
          "name": "_operator",
          "type": "address"
        }
      ],
      "name": "isApprovedForAll",
      "outputs": [
        {
          "internalType": "bool",
          "name": "",
          "type": "bool"
        }
      ],
      "stateMutability": "view",
      "type": "function"
    },
    {
      "inputs": [
        {
          "internalType": "address",
          "name": "mintWalletAddress",
          "type": "address"
        },
        {
          "internalType": "uint256",
          "name": "nftTokenId",
          "type": "uint256"
        },
        {
          "internalType": "bytes",
          "name": "data",
          "type": "bytes"
        }
      ],
      "name": "mintNFTToWallet",
      "outputs": [],
      "stateMutability": "nonpayable",
      "type": "function"
    },
    {
      "inputs": [
        {
          "internalType": "uint256",
          "name": "nftTokenID",
          "type": "uint256"
        }
      ],
      "name": "nftOwnerAddress",
      "outputs": [
        {
          "internalType": "address",
          "name": "",
          "type": "address"
        }
      ],
      "stateMutability": "view",
      "type": "function"
    },
    {
      "inputs": [],
      "name": "owner",
      "outputs": [
        {
          "internalType": "address",
          "name": "",
          "type": "address"
        }
      ],
      "stateMutability": "view",
      "type": "function"
    },
    {
      "inputs": [],
      "name": "pause",
      "outputs": [],
      "stateMutability": "nonpayable",
      "type": "function"
    },
    {
      "inputs": [],
      "name": "paused",
      "outputs": [
        {
          "internalType": "bool",
          "name": "",
          "type": "bool"
        }
      ],
      "stateMutability": "view",
      "type": "function"
    },
    {
      "inputs": [
        {
          "internalType": "uint256",
          "name": "tierID",
          "type": "uint256"
        }
      ],
      "name": "readTierData",
      "outputs": [
        {
          "internalType": "bool",
          "name": "",
          "type": "bool"
        },
        {
          "internalType": "bool",
          "name": "",
          "type": "bool"
        },
        {
          "internalType": "uint64",
          "name": "",
          "type": "uint64"
        },
        {
          "internalType": "uint64",
          "name": "",
          "type": "uint64"
        }
      ],
      "stateMutability": "view",
      "type": "function"
    },
    {
      "inputs": [],
      "name": "renounceOwnership",
      "outputs": [],
      "stateMutability": "nonpayable",
      "type": "function"
    },
    {
      "inputs": [
        {
          "internalType": "address",
          "name": "from",
          "type": "address"
        },
        {
          "internalType": "address",
          "name": "to",
          "type": "address"
        },
        {
          "internalType": "uint256[]",
          "name": "ids",
          "type": "uint256[]"
        },
        {
          "internalType": "uint256[]",
          "name": "amounts",
          "type": "uint256[]"
        },
        {
          "internalType": "bytes",
          "name": "data",
          "type": "bytes"
        }
      ],
      "name": "safeBatchTransferFrom",
      "outputs": [],
      "stateMutability": "nonpayable",
      "type": "function"
    },
    {
      "inputs": [
        {
          "internalType": "address",
          "name": "from",
          "type": "address"
        },
        {
          "internalType": "address",
          "name": "to",
          "type": "address"
        },
        {
          "internalType": "uint256",
          "name": "id",
          "type": "uint256"
        },
        {
          "internalType": "uint256",
          "name": "amount",
          "type": "uint256"
        },
        {
          "internalType": "bytes",
          "name": "data",
          "type": "bytes"
        }
      ],
      "name": "safeTransferFrom",
      "outputs": [],
      "stateMutability": "nonpayable",
      "type": "function"
    },
    {
      "inputs": [
        {
          "internalType": "address",
          "name": "operator",
          "type": "address"
        },
        {
          "internalType": "bool",
          "name": "approved",
          "type": "bool"
        }
      ],
      "name": "setApprovalForAll",
      "outputs": [],
      "stateMutability": "nonpayable",
      "type": "function"
    },
    {
      "inputs": [
        {
          "internalType": "uint256",
          "name": "tierID",
          "type": "uint256"
        },
        {
          "internalType": "string",
          "name": "tierURI",
          "type": "string"
        }
      ],
      "name": "setTierUri",
      "outputs": [],
      "stateMutability": "nonpayable",
      "type": "function"
    },
    {
      "inputs": [
        {
          "internalType": "bytes4",
          "name": "interfaceId",
          "type": "bytes4"
        }
      ],
      "name": "supportsInterface",
      "outputs": [
        {
          "internalType": "bool",
          "name": "",
          "type": "bool"
        }
      ],
      "stateMutability": "view",
      "type": "function"
    },
    {
      "inputs": [
        {
          "internalType": "uint256",
          "name": "",
          "type": "uint256"
        }
      ],
      "name": "tierData",
      "outputs": [
        {
          "internalType": "bool",
          "name": "exists",
          "type": "bool"
        },
        {
          "internalType": "bool",
          "name": "mintable",
          "type": "bool"
        },
        {
          "internalType": "uint64",
          "name": "nftTokenCurrentSupply",
          "type": "uint64"
        },
        {
          "internalType": "uint64",
          "name": "maxNFTTokenSupply",
          "type": "uint64"
        }
      ],
      "stateMutability": "view",
      "type": "function"
    },
    {
      "inputs": [
        {
          "internalType": "address",
          "name": "newOwner",
          "type": "address"
        }
      ],
      "name": "transferOwnership",
      "outputs": [],
      "stateMutability": "nonpayable",
      "type": "function"
    },
    {
      "inputs": [],
      "name": "unpause",
      "outputs": [],
      "stateMutability": "nonpayable",
      "type": "function"
    },
    {
      "inputs": [
        {
          "internalType": "string",
          "name": "nftMetaDataURI",
          "type": "string"
        }
      ],
      "name": "updateNftURI",
      "outputs": [],
      "stateMutability": "nonpayable",
      "type": "function"
    },
    {
      "inputs": [
        {
          "internalType": "uint256",
          "name": "tokenId",
          "type": "uint256"
        }
      ],
      "name": "uri",
      "outputs": [
        {
          "internalType": "string",
          "name": "",
          "type": "string"
        }
      ],
      "stateMutability": "view",
      "type": "function"
    }
  ],
  "bytecode": "0x608060405234801561001057600080fd5b506134f2806100206000396000f3fe608060405234801561001057600080fd5b506004361061018d5760003560e01c80637efab5f3116100de578063d559e48611610097578063f07665e211610071578063f07665e21461043c578063f242432a1461044f578063f2fde38b14610462578063f62d18881461047557600080fd5b8063d559e486146103a3578063e84afe6a146103b6578063e985e9c51461042957600080fd5b80637efab5f3146102d85780638456cb59146103515780638da5cb5b14610359578063a22cb4651461036a578063a43c9d9a1461037d578063a9ddcfd21461039057600080fd5b80633f4ba83a1161014b578063604e371111610125578063604e3711146102975780636fa9582d146102aa57806370142b4f146102bd578063715018a6146102d057600080fd5b80633f4ba83a146102645780634e1273f41461026c5780635c975abb1461028c57600080fd5b8062fdd58e1461019257806301ffc9a7146101b85780630e23264a146101db5780630e89341c146101f05780631dbf20d5146102105780632eb2c2d614610251575b600080fd5b6101a56101a0366004612bcc565b610488565b6040519081526020015b60405180910390f35b6101cb6101c6366004612dca565b610523565b60405190151581526020016101af565b6101ee6101e9366004612f0e565b610573565b005b6102036101fe366004612ead565b61079e565b6040516101af9190613098565b61023961021e366004612ead565b600090815260fd60205260409020546001600160a01b031690565b6040516001600160a01b0390911681526020016101af565b6101ee61025f366004612a8b565b610882565b6101ee6108ce565b61027f61027a366004612d00565b6108e8565b6040516101af9190613057565b60975460ff166101cb565b6102036102a5366004612e86565b610a49565b6101ee6102b8366004612ca9565b610af5565b6101ee6102cb366004612e02565b610ddb565b6101ee610e2e565b6103206102e6366004612ead565b60fc6020526000908152604090205460ff808216916101008104909116906001600160401b03620100008204811691600160501b90041684565b60408051941515855292151560208501526001600160401b03918216928401929092521660608201526080016101af565b6101ee610e40565b60c9546001600160a01b0316610239565b6101ee610378366004612b92565b610e58565b6101ee61038b366004612a3f565b610e63565b6101ee61039e366004612bf5565b610fbd565b6101ee6103b1366004612ec5565b6114e0565b6103206103c4366004612ead565b600090815260fc60209081526040918290208251608081018452905460ff8082161515808452610100830490911615159383018490526001600160401b036201000083048116958401869052600160501b909204909116606090920182905293919291565b6101cb610437366004612a59565b611621565b6101ee61044a366004612a3f565b6116c3565b6101ee61045d366004612b30565b611905565b6101ee610470366004612a3f565b61194a565b6101ee610483366004612e41565b6119c3565b60006001600160a01b0383166104f85760405162461bcd60e51b815260206004820152602a60248201527f455243313135353a2061646472657373207a65726f206973206e6f742061207660448201526930b634b21037bbb732b960b11b60648201526084015b60405180910390fd5b5060008181526065602090815260408083206001600160a01b03861684529091529020545b92915050565b60006001600160e01b03198216636cdb3d1360e11b148061055457506001600160e01b031982166303a24d0760e21b145b8061051d57506301ffc9a760e01b6001600160e01b031983161461051d565b61057b611ae5565b610583611b3f565b600082815260fc60209081526040918290208251608081018452905460ff808216151583526101008204161515928201929092526001600160401b03620100008304811693820193909352600160501b909104909116606082015282158015906105f05750600160801b83105b61062d5760405162461bcd60e51b815260206004820152600e60248201526d125b9d985b1a59081d1a595c925160921b60448201526064016104ef565b60008211801561064557506801000000000000000082105b6106915760405162461bcd60e51b815260206004820152601860248201527f4d617820537570706c79206e6f7420696e20626f756e6473000000000000000060448201526064016104ef565b8051156106d65760405162461bcd60e51b81526020600482015260136024820152725469657220416c72656164792045786973747360681b60448201526064016104ef565b600180825260208083019182526001600160401b0380851660608501908152600087815260fc90935260408084208651815496518389015194518616600160501b0267ffffffffffffffff60501b199590961662010000029490941662010000600160901b03199415156101000261ff00199215159290921661ffff199098169790971717929092169490941791909117905590516001600160801b038516917f7f5e5a08edeec45b1365f04963a9e9935814119b9bf9e52d6ff0eaf99ca4d28f91a2505050565b608081901c600081815260fb6020526040812080546060939291906107c290613357565b80601f01602080910402602001604051908101604052809291908181526020018280546107ee90613357565b801561083b5780601f106108105761010080835404028352916020019161083b565b820191906000526020600020905b81548152906001019060200180831161081e57829003601f168201915b505050600085815260fc60205260409020549293505060ff90911690508015610865575060008151115b15610871579392505050565b61087a84611b85565b949350505050565b6001600160a01b03851633148061089e575061089e8533611621565b6108ba5760405162461bcd60e51b81526004016104ef906130f3565b6108c78585858585611b94565b5050505050565b6108d6611ae5565b6108de611d55565b6108e6611d9e565b565b6060815183511461094d5760405162461bcd60e51b815260206004820152602960248201527f455243313135353a206163636f756e747320616e6420696473206c656e677468604482015268040dad2e6dac2e8c6d60bb1b60648201526084016104ef565b600083516001600160401b0381111561097657634e487b7160e01b600052604160045260246000fd5b60405190808252806020026020018201604052801561099f578160200160208202803683370190505b50905060005b8451811015610a4157610a068582815181106109d157634e487b7160e01b600052603260045260246000fd5b60200260200101518583815181106109f957634e487b7160e01b600052603260045260246000fd5b6020026020010151610488565b828281518110610a2657634e487b7160e01b600052603260045260246000fd5b6020908102919091010152610a3a816133be565b90506109a5565b509392505050565b6001600160801b038116600090815260fb60205260409020805460609190610a7090613357565b80601f0160208091040260200160405190810160405280929190818152602001828054610a9c90613357565b8015610ae95780601f10610abe57610100808354040283529160200191610ae9565b820191906000526020600020905b815481529060010190602001808311610acc57829003601f168201915b50505050509050919050565b610afd611ae5565b610b05611b3f565b608083811c600081815260fc6020908152604091829020825194850183525460ff808216151586526101008204161515918501919091526001600160401b03620100008204811692850192909252600160501b9004166060830152906001600160a01b038616610bb15760405162461bcd60e51b815260206004820152601760248201527605468652057616c6c65742041646472657373206973203604c1b60448201526064016104ef565b8051610bf65760405162461bcd60e51b81526020600482015260146024820152735469657220646f6573206e6f742065786973747360601b60448201526064016104ef565b8060200151610c475760405162461bcd60e51b815260206004820152601f60248201527f546965722068617320616c7265616479206265656e206578686175737465640060448201526064016104ef565b600085815260fd60205260409020546001600160a01b031615610ca35760405162461bcd60e51b8152602060048201526014602482015273151bdad95b88105b1c9958591e48135a5b9d195960621b60448201526064016104ef565b600181604001818151610cb69190613315565b6001600160401b03908116909152604083015160608401518216911614159050610ce257600060208201525b600082815260fc602090815260409182902083518154838601518587015160608801516001600160401b03908116600160501b0267ffffffffffffffff60501b199190921662010000021662010000600160901b03199215156101000261ff00199515159590951661ffff19909416939093179390931716171790558151601f8601829004820281018201909252848252610d9e91889188916001918990899081908401838280828437600092019190915250611df092505050565b8060200151610dd35760405182907fa580a11e3704f34e24a96f7eb5e3f52a6a54bfa52e5908fd843ed3047d8b095690600090a25b505050505050565b610de3611ae5565b610deb611b3f565b610e2a82828080601f016020809104026020016040519081016040528093929190818152602001838380828437600092019190915250611edb92505050565b5050565b610e36611ae5565b6108e66000611eee565b610e48611ae5565b610e50611b3f565b6108e6611f40565b610e2a338383611f7d565b610e6b611ae5565b610e73611b3f565b6001600160a01b038116610eb85760405162461bcd60e51b815260206004820152600c60248201526b4e756c6c204164647265737360a01b60448201526064016104ef565b6001600160a01b038116600090815260ff602052604090205415610f295760405162461bcd60e51b815260206004820152602260248201527f4d61726b6574506c616365206164647265737320616c72656164792065786973604482015261747360f01b60648201526084016104ef565b60fe54610f379060016132fd565b6001600160a01b038216600081815260ff60205260408082209390935560fe80546001810182559082527f54075df80ec1ae6ac9100e1fd0ebf3246c17f5c933137af392011f4c5f61513a0180546001600160a01b03191683179055915190917f933f61e4def53c086749a31a879b4930629e165dd7d1fe23117bf4c84976ca5191a250565b610fc5611ae5565b610fcd611b3f565b600085815260fc60209081526040918290208251608081018452905460ff808216151583526101008204161515928201929092526001600160401b03620100008304811693820193909352600160501b90910490911660608201528390861580159061103c5750600160801b87105b61107a5760405162461bcd60e51b815260206004820152600f60248201526e151a595c881251081a5b9d985b1a59608a1b60448201526064016104ef565b6001600160a01b0388166110ca5760405162461bcd60e51b815260206004820152601760248201527605468652057616c6c65742041646472657373206973203604c1b60448201526064016104ef565b805161110f5760405162461bcd60e51b81526020600482015260146024820152735469657220646f6573206e6f742065786973747360601b60448201526064016104ef565b6000821161115f5760405162461bcd60e51b815260206004820152601f60248201527f456d707479206c697374206f6620746f6b656e20696420666f72206e6674730060448201526064016104ef565b8181604001516001600160401b031661117891906132fd565b81606001516001600160401b031610156111d45760405162461bcd60e51b815260206004820152601f60248201527f4d696e74696e67206d6f726520746f6b656e73207468616e20737570706c790060448201526064016104ef565b6000826001600160401b038111156111fc57634e487b7160e01b600052604160045260246000fd5b604051908082528060200260200182016040528015611225578160200160208202803683370190505b50905060005b838110156113775788608089898481811061125657634e487b7160e01b600052603260045260246000fd5b90506020020135901c146112ac5760405162461bcd60e51b815260206004820181905260248201527f4e465420646f65736e27742062656c6f6e6720746f20676976656e207469657260448201526064016104ef565b600060fd818a8a858181106112d157634e487b7160e01b600052603260045260246000fd5b60209081029290920135835250810191909152604001600020546001600160a01b0316146113385760405162461bcd60e51b8152602060048201526014602482015273151bdad95b88105b1c9958591e48135a5b9d195960621b60448201526064016104ef565b600182828151811061135a57634e487b7160e01b600052603260045260246000fd5b60209081029190910101528061136f816133be565b91505061122b565b50828260400181815161138a9190613315565b6001600160401b039081169091526060840151604085015182169116141590506113b657600060208301525b600088815260fc602090815260409182902084518154838701518588015160608901516001600160401b03908116600160501b0267ffffffffffffffff60501b199190921662010000021662010000600160901b03199215156101000261ff00199515159590951661ffff1990941693909317939093171617179055815188820281810183019093528881526114a0928c928b918b9182919085019084908082843760009201919091525050604080516020601f8c018190048102820181019092528a815287935091508a908a908190840183828082843760009201919091525061205e92505050565b81602001516114d55760405188907fa580a11e3704f34e24a96f7eb5e3f52a6a54bfa52e5908fd843ed3047d8b095690600090a25b505050505050505050565b6114e8611ae5565b6114f0611b3f565b6000831161152f5760405162461bcd60e51b815260206004820152600c60248201526b05469657220494420697320360a41b60448201526064016104ef565b806115705760405162461bcd60e51b8152602060048201526011602482015270546965722055524920697320656d70747960781b60448201526064016104ef565b600083815260fc602052604090205460ff166115c75760405162461bcd60e51b8152602060048201526016602482015275151a595c881a5cc81b9bdd081c9959da5cdd195c995960521b60448201526064016104ef565b600083815260fb602052604090206115e09083836127d9565b507f63f4b1f0176829c3ec6823d76e8f288ed526005a94f6b6f219a7cf2975a436b2838383604051611614939291906132a4565b60405180910390a1505050565b60fe54600090815b8181101561169457836001600160a01b031660fe828154811061165c57634e487b7160e01b600052603260045260246000fd5b6000918252602090912001546001600160a01b031614156116825760019250505061051d565b8061168c816133be565b915050611629565b506001600160a01b0380851660009081526066602090815260408083209387168352929052205460ff1661087a565b6116cb611ae5565b6116d3611b3f565b6001600160a01b0381166117185760405162461bcd60e51b815260206004820152600c60248201526b4e756c6c204164647265737360a01b60448201526064016104ef565b6001600160a01b038116600090815260ff60205260409020546117895760405162461bcd60e51b815260206004820152602360248201527f4d61726b6574506c616365206164647265737320646f6573206e6f742065786960448201526273747360e81b60648201526084016104ef565b6001600160a01b038116600090815260ff60205260408120546117ae90600190613340565b60fe549091506000906117c390600190613340565b905080821461187b57600060fe82815481106117ef57634e487b7160e01b600052603260045260246000fd5b60009182526020909120015460fe80546001600160a01b03909216925082918590811061182c57634e487b7160e01b600052603260045260246000fd5b600091825260209091200180546001600160a01b0319166001600160a01b03929092169190911790556118608360016132fd565b6001600160a01b03909116600090815260ff60205260409020555b60fe80548061189a57634e487b7160e01b600052603160045260246000fd5b60008281526020808220830160001990810180546001600160a01b03191690559092019092556001600160a01b03851680835260ff90915260408083208390555190917f370ef989c014e5f3a1c3945a6feef6df84146c388feef2e217c78c50a99a18f291a2505050565b6001600160a01b03851633148061192157506119218533611621565b61193d5760405162461bcd60e51b81526004016104ef906130f3565b6108c785858585856121d5565b611952611ae5565b6001600160a01b0381166119b75760405162461bcd60e51b815260206004820152602660248201527f4f776e61626c653a206e6577206f776e657220697320746865207a65726f206160448201526564647265737360d01b60648201526084016104ef565b6119c081611eee565b50565b600054610100900460ff16158080156119e35750600054600160ff909116105b806119fd5750303b1580156119fd575060005460ff166001145b611a605760405162461bcd60e51b815260206004820152602e60248201527f496e697469616c697a61626c653a20636f6e747261637420697320616c72656160448201526d191e481a5b9a5d1a585b1a5e995960921b60648201526084016104ef565b6000805460ff191660011790558015611a83576000805461ff0019166101001790555b611a8c82612306565b611a94612336565b611a9c612365565b8015610e2a576000805461ff0019169055604051600181527f7f26b83ff96e1f2b6a682f133852f6798a09c465da95921460cefb38474024989060200160405180910390a15050565b60c9546001600160a01b031633146108e65760405162461bcd60e51b815260206004820181905260248201527f4f776e61626c653a2063616c6c6572206973206e6f7420746865206f776e657260448201526064016104ef565b60975460ff16156108e65760405162461bcd60e51b815260206004820152601060248201526f14185d5cd8589b194e881c185d5cd95960821b60448201526064016104ef565b606060678054610a7090613357565b8151835114611bb55760405162461bcd60e51b81526004016104ef9061321b565b6001600160a01b038416611bdb5760405162461bcd60e51b81526004016104ef90613141565b33611bea818787878787612394565b60005b8451811015611cef576000858281518110611c1857634e487b7160e01b600052603260045260246000fd5b602002602001015190506000858381518110611c4457634e487b7160e01b600052603260045260246000fd5b60209081029190910181015160008481526065835260408082206001600160a01b038e168352909352919091205490915081811015611c955760405162461bcd60e51b81526004016104ef90613186565b60008381526065602090815260408083206001600160a01b038e8116855292528083208585039055908b16825281208054849290611cd49084906132fd565b9250508190555050505080611ce8906133be565b9050611bed565b50846001600160a01b0316866001600160a01b0316826001600160a01b03167f4a39dc06d4c0dbc64b70af90fd698a233a518aa5d07e595d983b8c0526c8f7fb8787604051611d3f92919061306a565b60405180910390a4610dd38187878787876124b8565b60975460ff166108e65760405162461bcd60e51b815260206004820152601460248201527314185d5cd8589b194e881b9bdd081c185d5cd95960621b60448201526064016104ef565b611da6611d55565b6097805460ff191690557f5db9ee0a495bf2e6ff9c91a7834c1ba4fdd244a5e8aa4e537bd38aeae4b073aa335b6040516001600160a01b03909116815260200160405180910390a1565b6001600160a01b038416611e165760405162461bcd60e51b81526004016104ef90613263565b336000611e2285612623565b90506000611e2f85612623565b9050611e4083600089858589612394565b60008681526065602090815260408083206001600160a01b038b16845290915281208054879290611e729084906132fd565b909155505060408051878152602081018790526001600160a01b03808a1692600092918716917fc3d58168c5ae7397731d063d5bbf3d657854427343f4c083240f7aacaa2d0f62910160405180910390a4611ed28360008989898961267c565b50505050505050565b8051610e2a90606790602084019061285d565b60c980546001600160a01b038381166001600160a01b0319831681179093556040519116919082907f8be0079c531659141344cd1fd0a4f28419497f9722a3daafe3b4186f6b6457e090600090a35050565b611f48611b3f565b6097805460ff191660011790557f62e78cea01bee320cd4e420270b5ea74000d11b0c9f74754ebdbfc544b05a258611dd33390565b816001600160a01b0316836001600160a01b03161415611ff15760405162461bcd60e51b815260206004820152602960248201527f455243313135353a2073657474696e6720617070726f76616c20737461747573604482015268103337b91039b2b63360b91b60648201526084016104ef565b6001600160a01b03838116600081815260666020908152604080832094871680845294825291829020805460ff191686151590811790915591519182527f17307eab39ab6107e8899845ad3d59bd9653f200f220920489ca2b5937696c31910160405180910390a3505050565b6001600160a01b0384166120845760405162461bcd60e51b81526004016104ef90613263565b81518351146120a55760405162461bcd60e51b81526004016104ef9061321b565b336120b581600087878787612394565b60005b845181101561216d578381815181106120e157634e487b7160e01b600052603260045260246000fd5b60200260200101516065600087848151811061210d57634e487b7160e01b600052603260045260246000fd5b602002602001015181526020019081526020016000206000886001600160a01b03166001600160a01b03168152602001908152602001600020600082825461215591906132fd565b90915550819050612165816133be565b9150506120b8565b50846001600160a01b031660006001600160a01b0316826001600160a01b03167f4a39dc06d4c0dbc64b70af90fd698a233a518aa5d07e595d983b8c0526c8f7fb87876040516121be92919061306a565b60405180910390a46108c7816000878787876124b8565b6001600160a01b0384166121fb5760405162461bcd60e51b81526004016104ef90613141565b33600061220785612623565b9050600061221485612623565b9050612224838989858589612394565b60008681526065602090815260408083206001600160a01b038c168452909152902054858110156122675760405162461bcd60e51b81526004016104ef90613186565b60008781526065602090815260408083206001600160a01b038d8116855292528083208985039055908a168252812080548892906122a69084906132fd565b909155505060408051888152602081018890526001600160a01b03808b16928c821692918816917fc3d58168c5ae7397731d063d5bbf3d657854427343f4c083240f7aacaa2d0f62910160405180910390a46114d5848a8a8a8a8a61267c565b600054610100900460ff1661232d5760405162461bcd60e51b81526004016104ef906131d0565b6119c081612746565b600054610100900460ff1661235d5760405162461bcd60e51b81526004016104ef906131d0565b6108e6612776565b600054610100900460ff1661238c5760405162461bcd60e51b81526004016104ef906131d0565b6108e66127a9565b60005b8351811015611ed2576001600160a01b0386166124465760006001600160a01b031660fd60008684815181106123dd57634e487b7160e01b600052603260045260246000fd5b6020908102919091018101518252810191909152604001600020546001600160a01b0316146124465760405162461bcd60e51b8152602060048201526015602482015274111d5c1b1a58d85d19481b999d12511cc81cd95b9d605a1b60448201526064016104ef565b8460fd600086848151811061246b57634e487b7160e01b600052603260045260246000fd5b6020026020010151815260200190815260200160002060006101000a8154816001600160a01b0302191690836001600160a01b0316021790555080806124b0906133be565b915050612397565b6001600160a01b0384163b15610dd35760405163bc197c8160e01b81526001600160a01b0385169063bc197c81906124fc9089908990889088908890600401612fb4565b602060405180830381600087803b15801561251657600080fd5b505af1925050508015612546575060408051601f3d908101601f1916820190925261254391810190612de6565b60015b6125f357612552613405565b806308c379a0141561258c575061256761341d565b80612572575061258e565b8060405162461bcd60e51b81526004016104ef9190613098565b505b60405162461bcd60e51b815260206004820152603460248201527f455243313135353a207472616e7366657220746f206e6f6e2d455243313135356044820152732932b1b2b4bb32b91034b6b83632b6b2b73a32b960611b60648201526084016104ef565b6001600160e01b0319811663bc197c8160e01b14611ed25760405162461bcd60e51b81526004016104ef906130ab565b6040805160018082528183019092526060916000919060208083019080368337019050509050828160008151811061266b57634e487b7160e01b600052603260045260246000fd5b602090810291909101015292915050565b6001600160a01b0384163b15610dd35760405163f23a6e6160e01b81526001600160a01b0385169063f23a6e61906126c09089908990889088908890600401613012565b602060405180830381600087803b1580156126da57600080fd5b505af192505050801561270a575060408051601f3d908101601f1916820190925261270791810190612de6565b60015b61271657612552613405565b6001600160e01b0319811663f23a6e6160e01b14611ed25760405162461bcd60e51b81526004016104ef906130ab565b600054610100900460ff1661276d5760405162461bcd60e51b81526004016104ef906131d0565b6119c081611edb565b600054610100900460ff1661279d5760405162461bcd60e51b81526004016104ef906131d0565b6097805460ff19169055565b600054610100900460ff166127d05760405162461bcd60e51b81526004016104ef906131d0565b6108e633611eee565b8280546127e590613357565b90600052602060002090601f016020900481019282612807576000855561284d565b82601f106128205782800160ff1982351617855561284d565b8280016001018555821561284d579182015b8281111561284d578235825591602001919060010190612832565b506128599291506128d1565b5090565b82805461286990613357565b90600052602060002090601f01602090048101928261288b576000855561284d565b82601f106128a457805160ff191683800117855561284d565b8280016001018555821561284d579182015b8281111561284d5782518255916020019190600101906128b6565b5b8082111561285957600081556001016128d2565b60006001600160401b038311156128ff576128ff6133ef565b604051612916601f8501601f191660200182613392565b80915083815284848401111561292b57600080fd5b83836020830137600060208583010152509392505050565b80356001600160a01b038116811461295a57600080fd5b919050565b600082601f83011261296f578081fd5b8135602061297c826132da565b6040516129898282613392565b8381528281019150858301600585901b870184018810156129a8578586fd5b855b858110156129c6578135845292840192908401906001016129aa565b5090979650505050505050565b60008083601f8401126129e4578182fd5b5081356001600160401b038111156129fa578182fd5b602083019150836020828501011115612a1257600080fd5b9250929050565b600082601f830112612a29578081fd5b612a38838335602085016128e6565b9392505050565b600060208284031215612a50578081fd5b612a3882612943565b60008060408385031215612a6b578081fd5b612a7483612943565b9150612a8260208401612943565b90509250929050565b600080600080600060a08688031215612aa2578081fd5b612aab86612943565b9450612ab960208701612943565b935060408601356001600160401b0380821115612ad4578283fd5b612ae089838a0161295f565b94506060880135915080821115612af5578283fd5b612b0189838a0161295f565b93506080880135915080821115612b16578283fd5b50612b2388828901612a19565b9150509295509295909350565b600080600080600060a08688031215612b47578081fd5b612b5086612943565b9450612b5e60208701612943565b9350604086013592506060860135915060808601356001600160401b03811115612b86578182fd5b612b2388828901612a19565b60008060408385031215612ba4578182fd5b612bad83612943565b915060208301358015158114612bc1578182fd5b809150509250929050565b60008060408385031215612bde578182fd5b612be783612943565b946020939093013593505050565b60008060008060008060808789031215612c0d578384fd5b612c1687612943565b95506020870135945060408701356001600160401b0380821115612c38578586fd5b818901915089601f830112612c4b578586fd5b813581811115612c59578687fd5b8a60208260051b8501011115612c6d578687fd5b602083019650809550506060890135915080821115612c8a578283fd5b50612c9789828a016129d3565b979a9699509497509295939492505050565b60008060008060608587031215612cbe578182fd5b612cc785612943565b93506020850135925060408501356001600160401b03811115612ce8578283fd5b612cf4878288016129d3565b95989497509550505050565b60008060408385031215612d12578182fd5b82356001600160401b0380821115612d28578384fd5b818501915085601f830112612d3b578384fd5b81356020612d48826132da565b604051612d558282613392565b8381528281019150858301600585901b870184018b1015612d74578889fd5b8896505b84871015612d9d57612d8981612943565b835260019690960195918301918301612d78565b5096505086013592505080821115612db3578283fd5b50612dc08582860161295f565b9150509250929050565b600060208284031215612ddb578081fd5b8135612a38816134a6565b600060208284031215612df7578081fd5b8151612a38816134a6565b60008060208385031215612e14578182fd5b82356001600160401b03811115612e29578283fd5b612e35858286016129d3565b90969095509350505050565b600060208284031215612e52578081fd5b81356001600160401b03811115612e67578182fd5b8201601f81018413612e77578182fd5b61087a848235602084016128e6565b600060208284031215612e97578081fd5b81356001600160801b0381168114612a38578182fd5b600060208284031215612ebe578081fd5b5035919050565b600080600060408486031215612ed9578081fd5b8335925060208401356001600160401b03811115612ef5578182fd5b612f01868287016129d3565b9497909650939450505050565b60008060408385031215612f20578182fd5b50508035926020909101359150565b6000815180845260208085019450808401835b83811015612f5e57815187529582019590820190600101612f42565b509495945050505050565b60008151808452815b81811015612f8e57602081850181015186830182015201612f72565b81811115612f9f5782602083870101525b50601f01601f19169290920160200192915050565b6001600160a01b0386811682528516602082015260a060408201819052600090612fe090830186612f2f565b8281036060840152612ff28186612f2f565b905082810360808401526130068185612f69565b98975050505050505050565b6001600160a01b03868116825285166020820152604081018490526060810183905260a06080820181905260009061304c90830184612f69565b979650505050505050565b602081526000612a386020830184612f2f565b60408152600061307d6040830185612f2f565b828103602084015261308f8185612f2f565b95945050505050565b602081526000612a386020830184612f69565b60208082526028908201527f455243313135353a204552433131353552656365697665722072656a656374656040820152676420746f6b656e7360c01b606082015260800190565b6020808252602e908201527f455243313135353a2063616c6c6572206973206e6f7420746f6b656e206f776e60408201526d195c881bdc88185c1c1c9bdd995960921b606082015260800190565b60208082526025908201527f455243313135353a207472616e7366657220746f20746865207a65726f206164604082015264647265737360d81b606082015260800190565b6020808252602a908201527f455243313135353a20696e73756666696369656e742062616c616e636520666f60408201526939103a3930b739b332b960b11b606082015260800190565b6020808252602b908201527f496e697469616c697a61626c653a20636f6e7472616374206973206e6f74206960408201526a6e697469616c697a696e6760a81b606082015260800190565b60208082526028908201527f455243313135353a2069647320616e6420616d6f756e7473206c656e677468206040820152670dad2e6dac2e8c6d60c31b606082015260800190565b60208082526021908201527f455243313135353a206d696e7420746f20746865207a65726f206164647265736040820152607360f81b606082015260800190565b83815260406020820152816040820152818360608301376000818301606090810191909152601f909201601f1916010192915050565b60006001600160401b038211156132f3576132f36133ef565b5060051b60200190565b60008219821115613310576133106133d9565b500190565b60006001600160401b03808316818516808303821115613337576133376133d9565b01949350505050565b600082821015613352576133526133d9565b500390565b600181811c9082168061336b57607f821691505b6020821081141561338c57634e487b7160e01b600052602260045260246000fd5b50919050565b601f8201601f191681016001600160401b03811182821017156133b7576133b76133ef565b6040525050565b60006000198214156133d2576133d26133d9565b5060010190565b634e487b7160e01b600052601160045260246000fd5b634e487b7160e01b600052604160045260246000fd5b600060033d111561341a57600481823e5160e01c5b90565b600060443d101561342b5790565b6040516003193d81016004833e81513d6001600160401b03816024840111818411171561345a57505050505090565b82850191508151818111156134725750505050505090565b843d870101602082850101111561348c5750505050505090565b61349b60208286010187613392565b509095945050505050565b6001600160e01b0319811681146119c057600080fdfea2646970667358221220867464416a8c10185b6e037a83d09175a4bb47168607bb7e6368254e510503e764736f6c63430008040033",
  "linkReferences": {},
  "deployedLinkReferences": {}
}