{
  "_format": "hh-sol-artifact-1",
  "contractName": "FanTigerV2",
  "sourceName": "contracts/FanTigerV2.sol",
  "abi": [
    {
      "anonymous": false,
      "inputs": [
        {
          "indexed": true,
          "internalType": "address",
          "name": "account",
          "type": "address"
        },
        {
          "indexed": true,
          "internalType": "address",
          "name": "operator",
          "type": "address"
        },
        {
          "indexed": false,
          "internalType": "bool",
          "name": "approved",
          "type": "bool"
        }
      ],
      "name": "ApprovalForAll",
      "type": "event"
    },
    {
      "anonymous": false,
      "inputs": [
        {
          "indexed": true,
          "internalType": "address",
          "name": "marketPlaceAddress",
          "type": "address"
        }
      ],
      "name": "CreatedMarketPlace",
      "type": "event"
    },
    {
      "anonymous": false,
      "inputs": [
        {
          "indexed": false,
          "internalType": "uint8",
          "name": "version",
          "type": "uint8"
        }
      ],
      "name": "Initialized",
      "type": "event"
    },
    {
      "anonymous": false,
      "inputs": [
        {
          "indexed": true,
          "internalType": "uint256",
          "name": "tierID",
          "type": "uint256"
        }
      ],
      "name": "NFTTierExhausted",
      "type": "event"
    },
    {
      "anonymous": false,
      "inputs": [
        {
          "indexed": true,
          "internalType": "uint256",
          "name": "tierID",
          "type": "uint256"
        }
      ],
      "name": "NewNftTierCreated",
      "type": "event"
    },
    {
      "anonymous": false,
      "inputs": [
        {
          "indexed": true,
          "internalType": "address",
          "name": "previousOwner",
          "type": "address"
        },
        {
          "indexed": true,
          "internalType": "address",
          "name": "newOwner",
          "type": "address"
        }
      ],
      "name": "OwnershipTransferred",
      "type": "event"
    },
    {
      "anonymous": false,
      "inputs": [
        {
          "indexed": false,
          "internalType": "address",
          "name": "account",
          "type": "address"
        }
      ],
      "name": "Paused",
      "type": "event"
    },
    {
      "anonymous": false,
      "inputs": [
        {
          "indexed": true,
          "internalType": "address",
          "name": "marketPlaceAddress",
          "type": "address"
        }
      ],
      "name": "RemovedMarketPlace",
      "type": "event"
    },
    {
      "anonymous": false,
      "inputs": [
        {
          "indexed": true,
          "internalType": "bytes32",
          "name": "role",
          "type": "bytes32"
        },
        {
          "indexed": true,
          "internalType": "bytes32",
          "name": "previousAdminRole",
          "type": "bytes32"
        },
        {
          "indexed": true,
          "internalType": "bytes32",
          "name": "newAdminRole",
          "type": "bytes32"
        }
      ],
      "name": "RoleAdminChanged",
      "type": "event"
    },
    {
      "anonymous": false,
      "inputs": [
        {
          "indexed": true,
          "internalType": "bytes32",
          "name": "role",
          "type": "bytes32"
        },
        {
          "indexed": true,
          "internalType": "address",
          "name": "account",
          "type": "address"
        },
        {
          "indexed": true,
          "internalType": "address",
          "name": "sender",
          "type": "address"
        }
      ],
      "name": "RoleGranted",
      "type": "event"
    },
    {
      "anonymous": false,
      "inputs": [
        {
          "indexed": true,
          "internalType": "bytes32",
          "name": "role",
          "type": "bytes32"
        },
        {
          "indexed": true,
          "internalType": "address",
          "name": "account",
          "type": "address"
        },
        {
          "indexed": true,
          "internalType": "address",
          "name": "sender",
          "type": "address"
        }
      ],
      "name": "RoleRevoked",
      "type": "event"
    },
    {
      "anonymous": false,
      "inputs": [
        {
          "indexed": false,
          "internalType": "uint256",
          "name": "tierID",
          "type": "uint256"
        },
        {
          "indexed": false,
          "internalType": "string",
          "name": "tierURI",
          "type": "string"
        }
      ],
      "name": "TierURI",
      "type": "event"
    },
    {
      "anonymous": false,
      "inputs": [
        {
          "indexed": true,
          "internalType": "address",
          "name": "operator",
          "type": "address"
        },
        {
          "indexed": true,
          "internalType": "address",
          "name": "from",
          "type": "address"
        },
        {
          "indexed": true,
          "internalType": "address",
          "name": "to",
          "type": "address"
        },
        {
          "indexed": false,
          "internalType": "uint256[]",
          "name": "ids",
          "type": "uint256[]"
        },
        {
          "indexed": false,
          "internalType": "uint256[]",
          "name": "values",
          "type": "uint256[]"
        }
      ],
      "name": "TransferBatch",
      "type": "event"
    },
    {
      "anonymous": false,
      "inputs": [
        {
          "indexed": true,
          "internalType": "address",
          "name": "operator",
          "type": "address"
        },
        {
          "indexed": true,
          "internalType": "address",
          "name": "from",
          "type": "address"
        },
        {
          "indexed": true,
          "internalType": "address",
          "name": "to",
          "type": "address"
        },
        {
          "indexed": false,
          "internalType": "uint256",
          "name": "id",
          "type": "uint256"
        },
        {
          "indexed": false,
          "internalType": "uint256",
          "name": "value",
          "type": "uint256"
        }
      ],
      "name": "TransferSingle",
      "type": "event"
    },
    {
      "anonymous": false,
      "inputs": [
        {
          "indexed": false,
          "internalType": "string",
          "name": "value",
          "type": "string"
        },
        {
          "indexed": true,
          "internalType": "uint256",
          "name": "id",
          "type": "uint256"
        }
      ],
      "name": "URI",
      "type": "event"
    },
    {
      "anonymous": false,
      "inputs": [
        {
          "indexed": false,
          "internalType": "address",
          "name": "account",
          "type": "address"
        }
      ],
      "name": "Unpaused",
      "type": "event"
    },
    {
      "inputs": [],
      "name": "DEFAULT_ADMIN_ROLE",
      "outputs": [
        {
          "internalType": "bytes32",
          "name": "",
          "type": "bytes32"
        }
      ],
      "stateMutability": "view",
      "type": "function"
    },
    {
      "inputs": [],
      "name": "DEV",
      "outputs": [
        {
          "internalType": "bytes32",
          "name": "",
          "type": "bytes32"
        }
      ],
      "stateMutability": "view",
      "type": "function"
    },
    {
      "inputs": [
        {
          "internalType": "address",
          "name": "marketPlaceAddress",
          "type": "address"
        }
      ],
      "name": "addMarketPlaceAddress",
      "outputs": [],
      "stateMutability": "nonpayable",
      "type": "function"
    },
    {
      "inputs": [
        {
          "internalType": "address",
          "name": "account",
          "type": "address"
        },
        {
          "internalType": "uint256",
          "name": "id",
          "type": "uint256"
        }
      ],
      "name": "balanceOf",
      "outputs": [
        {
          "internalType": "uint256",
          "name": "",
          "type": "uint256"
        }
      ],
      "stateMutability": "view",
      "type": "function"
    },
    {
      "inputs": [
        {
          "internalType": "address[]",
          "name": "accounts",
          "type": "address[]"
        },
        {
          "internalType": "uint256[]",
          "name": "ids",
          "type": "uint256[]"
        }
      ],
      "name": "balanceOfBatch",
      "outputs": [
        {
          "internalType": "uint256[]",
          "name": "",
          "type": "uint256[]"
        }
      ],
      "stateMutability": "view",
      "type": "function"
    },
    {
      "inputs": [
        {
          "internalType": "address",
          "name": "mintWalletAddress",
          "type": "address"
        },
        {
          "internalType": "uint256",
          "name": "tierID",
          "type": "uint256"
        },
        {
          "internalType": "uint256[]",
          "name": "nftIDs",
          "type": "uint256[]"
        },
        {
          "internalType": "bytes",
          "name": "data",
          "type": "bytes"
        }
      ],
      "name": "batchMintNFTToWallet",
      "outputs": [],
      "stateMutability": "nonpayable",
      "type": "function"
    },
    {
      "inputs": [
        {
          "internalType": "address",
          "name": "mintWalletAddress",
          "type": "address"
        },
        {
          "internalType": "uint256",
          "name": "tierID",
          "type": "uint256"
        },
        {
          "internalType": "uint256[]",
          "name": "nftIDs",
          "type": "uint256[]"
        },
        {
          "internalType": "bytes",
          "name": "data",
          "type": "bytes"
        }
      ],
      "name": "batchMintNFTToWalletV2",
      "outputs": [],
      "stateMutability": "nonpayable",
      "type": "function"
    },
    {
      "inputs": [
        {
          "internalType": "uint256",
          "name": "tierID",
          "type": "uint256"
        },
        {
          "internalType": "uint256",
          "name": "maxSupply",
          "type": "uint256"
        }
      ],
      "name": "createNewNFTTier",
      "outputs": [],
      "stateMutability": "nonpayable",
      "type": "function"
    },
    {
      "inputs": [
        {
          "internalType": "uint256",
          "name": "tierID",
          "type": "uint256"
        },
        {
          "internalType": "uint256",
          "name": "maxSupply",
          "type": "uint256"
        }
      ],
      "name": "createNewNFTTierV2",
      "outputs": [],
      "stateMutability": "nonpayable",
      "type": "function"
    },
    {
      "inputs": [
        {
          "internalType": "address",
          "name": "marketPlaceAddress",
          "type": "address"
        }
      ],
      "name": "deleteMarketPlaceAddress",
      "outputs": [],
      "stateMutability": "nonpayable",
      "type": "function"
    },
    {
      "inputs": [
        {
          "internalType": "bytes32",
          "name": "role",
          "type": "bytes32"
        }
      ],
      "name": "getRoleAdmin",
      "outputs": [
        {
          "internalType": "bytes32",
          "name": "",
          "type": "bytes32"
        }
      ],
      "stateMutability": "view",
      "type": "function"
    },
    {
      "inputs": [
        {
          "internalType": "uint128",
          "name": "tierID",
          "type": "uint128"
        }
      ],
      "name": "getTierUri",
      "outputs": [
        {
          "internalType": "string",
          "name": "",
          "type": "string"
        }
      ],
      "stateMutability": "view",
      "type": "function"
    },
    {
      "inputs": [
        {
          "internalType": "bytes32",
          "name": "role",
          "type": "bytes32"
        },
        {
          "internalType": "address",
          "name": "account",
          "type": "address"
        }
      ],
      "name": "grantRole",
      "outputs": [],
      "stateMutability": "nonpayable",
      "type": "function"
    },
    {
      "inputs": [
        {
          "internalType": "bytes32",
          "name": "role",
          "type": "bytes32"
        },
        {
          "internalType": "address",
          "name": "account",
          "type": "address"
        }
      ],
      "name": "hasRole",
      "outputs": [
        {
          "internalType": "bool",
          "name": "",
          "type": "bool"
        }
      ],
      "stateMutability": "view",
      "type": "function"
    },
    {
      "inputs": [
        {
          "internalType": "string",
          "name": "nftMetadataURI",
          "type": "string"
        }
      ],
      "name": "initialize",
      "outputs": [],
      "stateMutability": "nonpayable",
      "type": "function"
    },
    {
      "inputs": [
        {
          "internalType": "address",
          "name": "_owner",
          "type": "address"
        },
        {
          "internalType": "address",
          "name": "_operator",
          "type": "address"
        }
      ],
      "name": "isApprovedForAll",
      "outputs": [
        {
          "internalType": "bool",
          "name": "",
          "type": "bool"
        }
      ],
      "stateMutability": "view",
      "type": "function"
    },
    {
      "inputs": [
        {
          "internalType": "address",
          "name": "mintWalletAddress",
          "type": "address"
        },
        {
          "internalType": "uint256",
          "name": "nftTokenId",
          "type": "uint256"
        },
        {
          "internalType": "bytes",
          "name": "data",
          "type": "bytes"
        }
      ],
      "name": "mintNFTToWallet",
      "outputs": [],
      "stateMutability": "nonpayable",
      "type": "function"
    },
    {
      "inputs": [
        {
          "internalType": "address",
          "name": "mintWalletAddress",
          "type": "address"
        },
        {
          "internalType": "uint256",
          "name": "nftTokenId",
          "type": "uint256"
        },
        {
          "internalType": "bytes",
          "name": "data",
          "type": "bytes"
        }
      ],
      "name": "mintNFTToWalletV2",
      "outputs": [],
      "stateMutability": "nonpayable",
      "type": "function"
    },
    {
      "inputs": [
        {
          "internalType": "uint256",
          "name": "nftTokenID",
          "type": "uint256"
        }
      ],
      "name": "nftOwnerAddress",
      "outputs": [
        {
          "internalType": "address",
          "name": "",
          "type": "address"
        }
      ],
      "stateMutability": "view",
      "type": "function"
    },
    {
      "inputs": [],
      "name": "owner",
      "outputs": [
        {
          "internalType": "address",
          "name": "",
          "type": "address"
        }
      ],
      "stateMutability": "view",
      "type": "function"
    },
    {
      "inputs": [],
      "name": "pause",
      "outputs": [],
      "stateMutability": "nonpayable",
      "type": "function"
    },
    {
      "inputs": [],
      "name": "paused",
      "outputs": [
        {
          "internalType": "bool",
          "name": "",
          "type": "bool"
        }
      ],
      "stateMutability": "view",
      "type": "function"
    },
    {
      "inputs": [
        {
          "internalType": "uint256",
          "name": "tierID",
          "type": "uint256"
        }
      ],
      "name": "readTierData",
      "outputs": [
        {
          "internalType": "bool",
          "name": "",
          "type": "bool"
        },
        {
          "internalType": "bool",
          "name": "",
          "type": "bool"
        },
        {
          "internalType": "uint64",
          "name": "",
          "type": "uint64"
        },
        {
          "internalType": "uint64",
          "name": "",
          "type": "uint64"
        }
      ],
      "stateMutability": "view",
      "type": "function"
    },
    {
      "inputs": [],
      "name": "renounceOwnership",
      "outputs": [],
      "stateMutability": "nonpayable",
      "type": "function"
    },
    {
      "inputs": [
        {
          "internalType": "bytes32",
          "name": "role",
          "type": "bytes32"
        },
        {
          "internalType": "address",
          "name": "account",
          "type": "address"
        }
      ],
      "name": "renounceRole",
      "outputs": [],
      "stateMutability": "nonpayable",
      "type": "function"
    },
    {
      "inputs": [
        {
          "internalType": "bytes32",
          "name": "role",
          "type": "bytes32"
        },
        {
          "internalType": "address",
          "name": "account",
          "type": "address"
        }
      ],
      "name": "revokeRole",
      "outputs": [],
      "stateMutability": "nonpayable",
      "type": "function"
    },
    {
      "inputs": [
        {
          "internalType": "address",
          "name": "from",
          "type": "address"
        },
        {
          "internalType": "address",
          "name": "to",
          "type": "address"
        },
        {
          "internalType": "uint256[]",
          "name": "ids",
          "type": "uint256[]"
        },
        {
          "internalType": "uint256[]",
          "name": "amounts",
          "type": "uint256[]"
        },
        {
          "internalType": "bytes",
          "name": "data",
          "type": "bytes"
        }
      ],
      "name": "safeBatchTransferFrom",
      "outputs": [],
      "stateMutability": "nonpayable",
      "type": "function"
    },
    {
      "inputs": [
        {
          "internalType": "address",
          "name": "from",
          "type": "address"
        },
        {
          "internalType": "address",
          "name": "to",
          "type": "address"
        },
        {
          "internalType": "uint256",
          "name": "id",
          "type": "uint256"
        },
        {
          "internalType": "uint256",
          "name": "amount",
          "type": "uint256"
        },
        {
          "internalType": "bytes",
          "name": "data",
          "type": "bytes"
        }
      ],
      "name": "safeTransferFrom",
      "outputs": [],
      "stateMutability": "nonpayable",
      "type": "function"
    },
    {
      "inputs": [
        {
          "internalType": "address",
          "name": "operator",
          "type": "address"
        },
        {
          "internalType": "bool",
          "name": "approved",
          "type": "bool"
        }
      ],
      "name": "setApprovalForAll",
      "outputs": [],
      "stateMutability": "nonpayable",
      "type": "function"
    },
    {
      "inputs": [
        {
          "internalType": "uint256",
          "name": "tierID",
          "type": "uint256"
        },
        {
          "internalType": "string",
          "name": "tierURI",
          "type": "string"
        }
      ],
      "name": "setTierUri",
      "outputs": [],
      "stateMutability": "nonpayable",
      "type": "function"
    },
    {
      "inputs": [
        {
          "internalType": "bytes4",
          "name": "interfaceId",
          "type": "bytes4"
        }
      ],
      "name": "supportsInterface",
      "outputs": [
        {
          "internalType": "bool",
          "name": "",
          "type": "bool"
        }
      ],
      "stateMutability": "view",
      "type": "function"
    },
    {
      "inputs": [
        {
          "internalType": "uint256",
          "name": "",
          "type": "uint256"
        }
      ],
      "name": "tierData",
      "outputs": [
        {
          "internalType": "bool",
          "name": "exists",
          "type": "bool"
        },
        {
          "internalType": "bool",
          "name": "mintable",
          "type": "bool"
        },
        {
          "internalType": "uint64",
          "name": "nftTokenCurrentSupply",
          "type": "uint64"
        },
        {
          "internalType": "uint64",
          "name": "maxNFTTokenSupply",
          "type": "uint64"
        }
      ],
      "stateMutability": "view",
      "type": "function"
    },
    {
      "inputs": [
        {
          "internalType": "address",
          "name": "newOwner",
          "type": "address"
        }
      ],
      "name": "transferOwnership",
      "outputs": [],
      "stateMutability": "nonpayable",
      "type": "function"
    },
    {
      "inputs": [],
      "name": "unpause",
      "outputs": [],
      "stateMutability": "nonpayable",
      "type": "function"
    },
    {
      "inputs": [
        {
          "internalType": "string",
          "name": "nftMetaDataURI",
          "type": "string"
        }
      ],
      "name": "updateNftURI",
      "outputs": [],
      "stateMutability": "nonpayable",
      "type": "function"
    },
    {
      "inputs": [
        {
          "internalType": "uint256",
          "name": "tokenId",
          "type": "uint256"
        }
      ],
      "name": "uri",
      "outputs": [
        {
          "internalType": "string",
          "name": "",
          "type": "string"
        }
      ],
      "stateMutability": "view",
      "type": "function"
    }
  ],
  "bytecode": "0x608060405234801561001057600080fd5b506144dd806100206000396000f3fe608060405234801561001057600080fd5b506004361061021b5760003560e01c80638456cb5911610125578063c1eb5ddd116100ad578063e985e9c51161007c578063e985e9c514610576578063f07665e214610589578063f242432a1461059c578063f2fde38b146105af578063f62d1888146105c257600080fd5b8063c1eb5ddd146104cf578063d547741f146104dd578063d559e486146104f0578063e84afe6a1461050357600080fd5b8063a217fddf116100f4578063a217fddf1461047b578063a22cb46514610483578063a43c9d9a14610496578063a9ddcfd2146104a9578063aaf8f574146104bc57600080fd5b80638456cb591461043c5780638da5cb5b1461044457806391d14854146104555780639cd964cc1461046857600080fd5b80633f4ba83a116101a8578063604e371111610177578063604e3711146103825780636fa9582d1461039557806370142b4f146103a8578063715018a6146103bb5780637efab5f3146103c357600080fd5b80633f4ba83a1461033c5780634420fbb0146103445780634e1273f4146103575780635c975abb1461037757600080fd5b80631dbf20d5116101ef5780631dbf20d51461029e578063248a9ca3146102df5780632eb2c2d6146103035780632f2ff15d1461031657806336568abe1461032957600080fd5b8062fdd58e1461022057806301ffc9a7146102465780630e23264a146102695780630e89341c1461027e575b600080fd5b61023361022e3660046139d8565b6105d5565b6040519081526020015b60405180910390f35b610259610254366004613c10565b610670565b604051901515815260200161023d565b61027c610277366004613d3c565b61067b565b005b61029161028c366004613bd6565b61089c565b60405161023d9190613f1c565b6102c76102ac366004613bd6565b600090815260fd60205260409020546001600160a01b031690565b6040516001600160a01b03909116815260200161023d565b6102336102ed366004613bd6565b6000908152610100602052604090206001015490565b61027c610311366004613897565b610980565b61027c610324366004613bee565b6109cc565b61027c610337366004613bee565b6109f7565b61027c610a75565b61027c610352366004613ab5565b610a8f565b61036a610365366004613b0c565b610cf5565b60405161023d9190613edb565b60975460ff16610259565b610291610390366004613ccc565b610e56565b61027c6103a3366004613ab5565b610f02565b61027c6103b6366004613c48565b61115e565b61027c6111ad565b61040b6103d1366004613bd6565b60fc6020526000908152604090205460ff808216916101008104909116906001600160401b03620100008204811691600160501b90041684565b60408051941515855292151560208501526001600160401b039182169284019290925216606082015260800161023d565b61027c6111bf565b60c9546001600160a01b03166102c7565b610259610463366004613bee565b6111d7565b61027c610476366004613d3c565b611203565b610233600081565b61027c61049136600461399e565b61142e565b61027c6104a436600461384b565b611439565b61027c6104b7366004613a01565b611593565b61027c6104ca366004613a01565b611a2c565b610233633078303160e01b81565b61027c6104eb366004613bee565b611ecf565b61027c6104fe366004613cf3565b611ef5565b61040b610511366004613bd6565b600090815260fc60209081526040918290208251608081018452905460ff8082161515808452610100830490911615159383018490526001600160401b036201000083048116958401869052600160501b909204909116606090920182905293919291565b610259610584366004613865565b612036565b61027c61059736600461384b565b6120d8565b61027c6105aa36600461393c565b61231a565b61027c6105bd36600461384b565b61235f565b61027c6105d0366004613c87565b6123d8565b60006001600160a01b0383166106455760405162461bcd60e51b815260206004820152602a60248201527f455243313135353a2061646472657373207a65726f206973206e6f742061207660448201526930b634b21037bbb732b960b11b60648201526084015b60405180910390fd5b5060008181526065602090815260408083206001600160a01b03861684529091529020545b92915050565b600061066a826124ae565b6106836124d3565b61068b61252d565b600082815260fc60209081526040918290208251608081018452905460ff808216151583526101008204161515928201929092526001600160401b03620100008304811693820193909352600160501b909104909116606082015282158015906106f85750600160801b83105b6107355760405162461bcd60e51b815260206004820152600e60248201526d125b9d985b1a59081d1a595c925160921b604482015260640161063c565b6000821180156107485750600160401b82105b61078f5760405162461bcd60e51b81526020600482015260186024820152774d617820537570706c79206e6f7420696e20626f756e647360401b604482015260640161063c565b8051156107d45760405162461bcd60e51b81526020600482015260136024820152725469657220416c72656164792045786973747360681b604482015260640161063c565b600180825260208083019182526001600160401b0380851660608501908152600087815260fc90935260408084208651815496518389015194518616600160501b0267ffffffffffffffff60501b199590961662010000029490941662010000600160901b03199415156101000261ff00199215159290921661ffff199098169790971717929092169490941791909117905590516001600160801b038516917f7f5e5a08edeec45b1365f04963a9e9935814119b9bf9e52d6ff0eaf99ca4d28f91a2505050565b608081901c600081815260fb6020526040812080546060939291906108c090614322565b80601f01602080910402602001604051908101604052809291908181526020018280546108ec90614322565b80156109395780601f1061090e57610100808354040283529160200191610939565b820191906000526020600020905b81548152906001019060200180831161091c57829003601f168201915b505050600085815260fc60205260409020549293505060ff90911690508015610963575060008151115b1561096f579392505050565b61097884612573565b949350505050565b6001600160a01b03851633148061099c575061099c8533612036565b6109b85760405162461bcd60e51b815260040161063c90613fa5565b6109c58585858585612582565b5050505050565b600082815261010060205260409020600101546109e881612743565b6109f2838361274d565b505050565b6001600160a01b0381163314610a675760405162461bcd60e51b815260206004820152602f60248201527f416363657373436f6e74726f6c3a2063616e206f6e6c792072656e6f756e636560448201526e103937b632b9903337b91039b2b63360891b606482015260840161063c565b610a7182826127d4565b5050565b610a7d6124d3565b610a8561283c565b610a8d612885565b565b633078303160e01b610aa081612743565b610aa861252d565b608084811c600081815260fc6020908152604091829020825194850183525460ff808216151586526101008204161515918501919091526001600160401b03620100008204811692850192909252600160501b9004166060830152906001600160a01b038716610b2a5760405162461bcd60e51b815260040161063c906140d0565b8051610b485760405162461bcd60e51b815260040161063c90613f77565b8060200151610b995760405162461bcd60e51b815260206004820152601f60248201527f546965722068617320616c7265616479206265656e2065786861757374656400604482015260640161063c565b600086815260fd60205260409020546001600160a01b031615610bce5760405162461bcd60e51b815260040161063c90614152565b600181604001818151610be1919061427a565b6001600160401b03908116909152604083015160608401518216911614159050610c0d57600060208201525b600082815260fc602090815260409182902083518154838601518587015160608801516001600160401b03908116600160501b0267ffffffffffffffff60501b199190921662010000021662010000600160901b03199215156101000261ff00199515159590951661ffff19909416939093179390931716171790558151601f8701829004820281018201909252858252610cc991899189916001918a908a90819084018382808284376000920191909152506128d792505050565b8060200151610cec57604051829060008051602061448883398151915290600090a25b50505050505050565b60608151835114610d5a5760405162461bcd60e51b815260206004820152602960248201527f455243313135353a206163636f756e747320616e6420696473206c656e677468604482015268040dad2e6dac2e8c6d60bb1b606482015260840161063c565b600083516001600160401b03811115610d8357634e487b7160e01b600052604160045260246000fd5b604051908082528060200260200182016040528015610dac578160200160208202803683370190505b50905060005b8451811015610e4e57610e13858281518110610dde57634e487b7160e01b600052603260045260246000fd5b6020026020010151858381518110610e0657634e487b7160e01b600052603260045260246000fd5b60200260200101516105d5565b828281518110610e3357634e487b7160e01b600052603260045260246000fd5b6020908102919091010152610e4781614389565b9050610db2565b509392505050565b6001600160801b038116600090815260fb60205260409020805460609190610e7d90614322565b80601f0160208091040260200160405190810160405280929190818152602001828054610ea990614322565b8015610ef65780601f10610ecb57610100808354040283529160200191610ef6565b820191906000526020600020905b815481529060010190602001808311610ed957829003601f168201915b50505050509050919050565b610f0a6124d3565b610f1261252d565b608083811c600081815260fc6020908152604091829020825194850183525460ff808216151586526101008204161515918501919091526001600160401b03620100008204811692850192909252600160501b9004166060830152906001600160a01b038616610f945760405162461bcd60e51b815260040161063c906140d0565b8051610fb25760405162461bcd60e51b815260040161063c90613f77565b80602001516110035760405162461bcd60e51b815260206004820152601f60248201527f546965722068617320616c7265616479206265656e2065786861757374656400604482015260640161063c565b600085815260fd60205260409020546001600160a01b0316156110385760405162461bcd60e51b815260040161063c90614152565b60018160400181815161104b919061427a565b6001600160401b0390811690915260408301516060840151821691161415905061107757600060208201525b600082815260fc602090815260409182902083518154838601518587015160608801516001600160401b03908116600160501b0267ffffffffffffffff60501b199190921662010000021662010000600160901b03199215156101000261ff00199515159590951661ffff19909416939093179390931716171790558151601f8601829004820281018201909252848252611133918891889160019189908990819084018382808284376000920191909152506128d792505050565b806020015161115657604051829060008051602061448883398151915290600090a25b505050505050565b6111666124d3565b61116e61252d565b610a7182828080601f0160208091040260200160405190810160405280939291908181526020018383808284376000920191909152506129b992505050565b6111b56124d3565b610a8d60006129cc565b6111c76124d3565b6111cf61252d565b610a8d612a1e565b6000918252610100602090815260408084206001600160a01b0393909316845291905290205460ff1690565b633078303160e01b61121481612743565b61121c61252d565b600083815260fc60209081526040918290208251608081018452905460ff808216151583526101008204161515928201929092526001600160401b03620100008304811693820193909352600160501b909104909116606082015283158015906112895750600160801b84105b6112c65760405162461bcd60e51b815260206004820152600e60248201526d125b9d985b1a59081d1a595c925160921b604482015260640161063c565b6000831180156112d95750600160401b83105b6113205760405162461bcd60e51b81526020600482015260186024820152774d617820537570706c79206e6f7420696e20626f756e647360401b604482015260640161063c565b8051156113655760405162461bcd60e51b81526020600482015260136024820152725469657220416c72656164792045786973747360681b604482015260640161063c565b600180825260208083019182526001600160401b0380861660608501908152600088815260fc90935260408084208651815496518389015194518616600160501b0267ffffffffffffffff60501b199590961662010000029490941662010000600160901b03199415156101000261ff00199215159290921661ffff199098169790971717929092169490941791909117905590516001600160801b038616917f7f5e5a08edeec45b1365f04963a9e9935814119b9bf9e52d6ff0eaf99ca4d28f91a250505050565b610a71338383612a5b565b6114416124d3565b61144961252d565b6001600160a01b03811661148e5760405162461bcd60e51b815260206004820152600c60248201526b4e756c6c204164647265737360a01b604482015260640161063c565b6001600160a01b038116600090815260ff6020526040902054156114ff5760405162461bcd60e51b815260206004820152602260248201527f4d61726b6574506c616365206164647265737320616c72656164792065786973604482015261747360f01b606482015260840161063c565b60fe5461150d906001614262565b6001600160a01b038216600081815260ff60205260408082209390935560fe80546001810182559082527f54075df80ec1ae6ac9100e1fd0ebf3246c17f5c933137af392011f4c5f61513a0180546001600160a01b03191683179055915190917f933f61e4def53c086749a31a879b4930629e165dd7d1fe23117bf4c84976ca5191a250565b61159b6124d3565b6115a361252d565b600085815260fc60209081526040918290208251608081018452905460ff808216151583526101008204161515928201929092526001600160401b03620100008304811693820193909352600160501b9091049091166060820152839086158015906116125750600160801b87105b6116505760405162461bcd60e51b815260206004820152600f60248201526e151a595c881251081a5b9d985b1a59608a1b604482015260640161063c565b6001600160a01b0388166116765760405162461bcd60e51b815260040161063c906140d0565b80516116945760405162461bcd60e51b815260040161063c90613f77565b600082116116e45760405162461bcd60e51b815260206004820152601f60248201527f456d707479206c697374206f6620746f6b656e20696420666f72206e66747300604482015260640161063c565b8181604001516001600160401b03166116fd9190614262565b81606001516001600160401b031610156117595760405162461bcd60e51b815260206004820152601f60248201527f4d696e74696e67206d6f726520746f6b656e73207468616e20737570706c7900604482015260640161063c565b6000826001600160401b0381111561178157634e487b7160e01b600052604160045260246000fd5b6040519080825280602002602001820160405280156117aa578160200160208202803683370190505b50905060005b838110156118d5578860808989848181106117db57634e487b7160e01b600052603260045260246000fd5b90506020020135901c146118315760405162461bcd60e51b815260206004820181905260248201527f4e465420646f65736e27742062656c6f6e6720746f20676976656e2074696572604482015260640161063c565b600060fd818a8a8581811061185657634e487b7160e01b600052603260045260246000fd5b60209081029290920135835250810191909152604001600020546001600160a01b0316146118965760405162461bcd60e51b815260040161063c90614152565b60018282815181106118b857634e487b7160e01b600052603260045260246000fd5b6020908102919091010152806118cd81614389565b9150506117b0565b5082826040018181516118e8919061427a565b6001600160401b0390811690915260608401516040850151821691161415905061191457600060208301525b600088815260fc602090815260409182902084518154838701518588015160608901516001600160401b03908116600160501b0267ffffffffffffffff60501b199190921662010000021662010000600160901b03199215156101000261ff00199515159590951661ffff1990941693909317939093171617179055815188820281810183019093528881526119fe928c928b918b9182919085019084908082843760009201919091525050604080516020601f8c018190048102820181019092528a815287935091508a908a9081908401838280828437600092019190915250612b3c92505050565b8160200151611a2157604051889060008051602061448883398151915290600090a25b505050505050505050565b633078303160e01b611a3d81612743565b611a4561252d565b600086815260fc60209081526040918290208251608081018452905460ff808216151583526101008204161515928201929092526001600160401b03620100008304811693820193909352600160501b909104909116606082015284908715801590611ab45750600160801b88105b611af25760405162461bcd60e51b815260206004820152600f60248201526e151a595c881251081a5b9d985b1a59608a1b604482015260640161063c565b6001600160a01b038916611b185760405162461bcd60e51b815260040161063c906140d0565b8051611b365760405162461bcd60e51b815260040161063c90613f77565b60008211611b865760405162461bcd60e51b815260206004820152601f60248201527f456d707479206c697374206f6620746f6b656e20696420666f72206e66747300604482015260640161063c565b8181604001516001600160401b0316611b9f9190614262565b81606001516001600160401b03161015611bfb5760405162461bcd60e51b815260206004820152601f60248201527f4d696e74696e67206d6f726520746f6b656e73207468616e20737570706c7900604482015260640161063c565b6000826001600160401b03811115611c2357634e487b7160e01b600052604160045260246000fd5b604051908082528060200260200182016040528015611c4c578160200160208202803683370190505b50905060005b83811015611d77578960808a8a84818110611c7d57634e487b7160e01b600052603260045260246000fd5b90506020020135901c14611cd35760405162461bcd60e51b815260206004820181905260248201527f4e465420646f65736e27742062656c6f6e6720746f20676976656e2074696572604482015260640161063c565b600060fd818b8b85818110611cf857634e487b7160e01b600052603260045260246000fd5b60209081029290920135835250810191909152604001600020546001600160a01b031614611d385760405162461bcd60e51b815260040161063c90614152565b6001828281518110611d5a57634e487b7160e01b600052603260045260246000fd5b602090810291909101015280611d6f81614389565b915050611c52565b508282604001818151611d8a919061427a565b6001600160401b03908116909152606084015160408501518216911614159050611db657600060208301525b600089815260fc602090815260409182902084518154838701518588015160608901516001600160401b03908116600160501b0267ffffffffffffffff60501b199190921662010000021662010000600160901b03199215156101000261ff00199515159590951661ffff199094169390931793909317161717905581518982028181018301909352898152611ea0928d928c918c9182919085019084908082843760009201919091525050604080516020601f8d018190048102820181019092528b815287935091508b908b9081908401838280828437600092019190915250612b3c92505050565b8160200151611ec357604051899060008051602061448883398151915290600090a25b50505050505050505050565b60008281526101006020526040902060010154611eeb81612743565b6109f283836127d4565b611efd6124d3565b611f0561252d565b60008311611f445760405162461bcd60e51b815260206004820152600c60248201526b05469657220494420697320360a41b604482015260640161063c565b80611f855760405162461bcd60e51b8152602060048201526011602482015270546965722055524920697320656d70747960781b604482015260640161063c565b600083815260fc602052604090205460ff16611fdc5760405162461bcd60e51b8152602060048201526016602482015275151a595c881a5cc81b9bdd081c9959da5cdd195c995960521b604482015260640161063c565b600083815260fb60205260409020611ff59083836135ec565b507f63f4b1f0176829c3ec6823d76e8f288ed526005a94f6b6f219a7cf2975a436b283838360405161202993929190614209565b60405180910390a1505050565b60fe54600090815b818110156120a957836001600160a01b031660fe828154811061207157634e487b7160e01b600052603260045260246000fd5b6000918252602090912001546001600160a01b031614156120975760019250505061066a565b806120a181614389565b91505061203e565b506001600160a01b0380851660009081526066602090815260408083209387168352929052205460ff16610978565b6120e06124d3565b6120e861252d565b6001600160a01b03811661212d5760405162461bcd60e51b815260206004820152600c60248201526b4e756c6c204164647265737360a01b604482015260640161063c565b6001600160a01b038116600090815260ff602052604090205461219e5760405162461bcd60e51b815260206004820152602360248201527f4d61726b6574506c616365206164647265737320646f6573206e6f742065786960448201526273747360e81b606482015260840161063c565b6001600160a01b038116600090815260ff60205260408120546121c3906001906142c4565b60fe549091506000906121d8906001906142c4565b905080821461229057600060fe828154811061220457634e487b7160e01b600052603260045260246000fd5b60009182526020909120015460fe80546001600160a01b03909216925082918590811061224157634e487b7160e01b600052603260045260246000fd5b600091825260209091200180546001600160a01b0319166001600160a01b0392909216919091179055612275836001614262565b6001600160a01b03909116600090815260ff60205260409020555b60fe8054806122af57634e487b7160e01b600052603160045260246000fd5b60008281526020808220830160001990810180546001600160a01b03191690559092019092556001600160a01b03851680835260ff90915260408083208390555190917f370ef989c014e5f3a1c3945a6feef6df84146c388feef2e217c78c50a99a18f291a2505050565b6001600160a01b03851633148061233657506123368533612036565b6123525760405162461bcd60e51b815260040161063c90613fa5565b6109c58585858585612cb3565b6123676124d3565b6001600160a01b0381166123cc5760405162461bcd60e51b815260206004820152602660248201527f4f776e61626c653a206e6577206f776e657220697320746865207a65726f206160448201526564647265737360d01b606482015260840161063c565b6123d5816129cc565b50565b600054610100900460ff16158080156123f85750600054600160ff909116105b806124125750303b158015612412575060005460ff166001145b61242e5760405162461bcd60e51b815260040161063c90614038565b6000805460ff191660011790558015612451576000805461ff0019166101001790555b61245a82612de4565b61246560003361274d565b8015610a71576000805461ff0019169055604051600181527f7f26b83ff96e1f2b6a682f133852f6798a09c465da95921460cefb38474024989060200160405180910390a15050565b60006001600160e01b03198216637965db0b60e01b148061066a575061066a82612e76565b60c9546001600160a01b03163314610a8d5760405162461bcd60e51b815260206004820181905260248201527f4f776e61626c653a2063616c6c6572206973206e6f7420746865206f776e6572604482015260640161063c565b60975460ff1615610a8d5760405162461bcd60e51b815260206004820152601060248201526f14185d5cd8589b194e881c185d5cd95960821b604482015260640161063c565b606060678054610e7d90614322565b81518351146125a35760405162461bcd60e51b815260040161063c90614180565b6001600160a01b0384166125c95760405162461bcd60e51b815260040161063c90613ff3565b336125d8818787878787612ec6565b60005b84518110156126dd57600085828151811061260657634e487b7160e01b600052603260045260246000fd5b60200260200101519050600085838151811061263257634e487b7160e01b600052603260045260246000fd5b60209081029190910181015160008481526065835260408082206001600160a01b038e1683529093529190912054909150818110156126835760405162461bcd60e51b815260040161063c90614086565b60008381526065602090815260408083206001600160a01b038e8116855292528083208585039055908b168252812080548492906126c2908490614262565b92505081905550505050806126d690614389565b90506125db565b50846001600160a01b0316866001600160a01b0316826001600160a01b03167f4a39dc06d4c0dbc64b70af90fd698a233a518aa5d07e595d983b8c0526c8f7fb878760405161272d929190613eee565b60405180910390a4611156818787878787612fea565b6123d58133613155565b61275782826111d7565b610a71576000828152610100602090815260408083206001600160a01b03851684529091529020805460ff191660011790556127903390565b6001600160a01b0316816001600160a01b0316837f2f8788117e7eff1d82e926ec794901d17c78024a50270940304540a733656f0d60405160405180910390a45050565b6127de82826111d7565b15610a71576000828152610100602090815260408083206001600160a01b0385168085529252808320805460ff1916905551339285917ff6391f5c32d9c69d2a47ea670b442974b53935d1edc7fd64eb21e047a839171b9190a45050565b60975460ff16610a8d5760405162461bcd60e51b815260206004820152601460248201527314185d5cd8589b194e881b9bdd081c185d5cd95960621b604482015260640161063c565b61288d61283c565b6097805460ff191690557f5db9ee0a495bf2e6ff9c91a7834c1ba4fdd244a5e8aa4e537bd38aeae4b073aa335b6040516001600160a01b03909116815260200160405180910390a1565b6001600160a01b0384166128fd5760405162461bcd60e51b815260040161063c906141c8565b336000612909856131ae565b90506000612916856131ae565b905061292783600089858589612ec6565b60008681526065602090815260408083206001600160a01b038b16845290915281208054879290612959908490614262565b909155505060408051878152602081018790526001600160a01b03808a1692600092918716917fc3d58168c5ae7397731d063d5bbf3d657854427343f4c083240f7aacaa2d0f62910160405180910390a4610cec83600089898989613207565b8051610a71906067906020840190613670565b60c980546001600160a01b038381166001600160a01b0319831681179093556040519116919082907f8be0079c531659141344cd1fd0a4f28419497f9722a3daafe3b4186f6b6457e090600090a35050565b612a2661252d565b6097805460ff191660011790557f62e78cea01bee320cd4e420270b5ea74000d11b0c9f74754ebdbfc544b05a2586128ba3390565b816001600160a01b0316836001600160a01b03161415612acf5760405162461bcd60e51b815260206004820152602960248201527f455243313135353a2073657474696e6720617070726f76616c20737461747573604482015268103337b91039b2b63360b91b606482015260840161063c565b6001600160a01b03838116600081815260666020908152604080832094871680845294825291829020805460ff191686151590811790915591519182527f17307eab39ab6107e8899845ad3d59bd9653f200f220920489ca2b5937696c31910160405180910390a3505050565b6001600160a01b038416612b625760405162461bcd60e51b815260040161063c906141c8565b8151835114612b835760405162461bcd60e51b815260040161063c90614180565b33612b9381600087878787612ec6565b60005b8451811015612c4b57838181518110612bbf57634e487b7160e01b600052603260045260246000fd5b602002602001015160656000878481518110612beb57634e487b7160e01b600052603260045260246000fd5b602002602001015181526020019081526020016000206000886001600160a01b03166001600160a01b031681526020019081526020016000206000828254612c339190614262565b90915550819050612c4381614389565b915050612b96565b50846001600160a01b031660006001600160a01b0316826001600160a01b03167f4a39dc06d4c0dbc64b70af90fd698a233a518aa5d07e595d983b8c0526c8f7fb8787604051612c9c929190613eee565b60405180910390a46109c581600087878787612fea565b6001600160a01b038416612cd95760405162461bcd60e51b815260040161063c90613ff3565b336000612ce5856131ae565b90506000612cf2856131ae565b9050612d02838989858589612ec6565b60008681526065602090815260408083206001600160a01b038c16845290915290205485811015612d455760405162461bcd60e51b815260040161063c90614086565b60008781526065602090815260408083206001600160a01b038d8116855292528083208985039055908a16825281208054889290612d84908490614262565b909155505060408051888152602081018890526001600160a01b03808b16928c821692918816917fc3d58168c5ae7397731d063d5bbf3d657854427343f4c083240f7aacaa2d0f62910160405180910390a4611a21848a8a8a8a8a613207565b600054610100900460ff1615808015612e045750600054600160ff909116105b80612e1e5750303b158015612e1e575060005460ff166001145b612e3a5760405162461bcd60e51b815260040161063c90614038565b6000805460ff191660011790558015612e5d576000805461ff0019166101001790555b612e66826132d1565b612e6e613301565b612465613330565b60006001600160e01b03198216636cdb3d1360e11b1480612ea757506001600160e01b031982166303a24d0760e21b145b8061066a57506301ffc9a760e01b6001600160e01b031983161461066a565b60005b8351811015610cec576001600160a01b038616612f785760006001600160a01b031660fd6000868481518110612f0f57634e487b7160e01b600052603260045260246000fd5b6020908102919091018101518252810191909152604001600020546001600160a01b031614612f785760405162461bcd60e51b8152602060048201526015602482015274111d5c1b1a58d85d19481b999d12511cc81cd95b9d605a1b604482015260640161063c565b8460fd6000868481518110612f9d57634e487b7160e01b600052603260045260246000fd5b6020026020010151815260200190815260200160002060006101000a8154816001600160a01b0302191690836001600160a01b031602179055508080612fe290614389565b915050612ec9565b6001600160a01b0384163b156111565760405163bc197c8160e01b81526001600160a01b0385169063bc197c819061302e9089908990889088908890600401613e38565b602060405180830381600087803b15801561304857600080fd5b505af1925050508015613078575060408051601f3d908101601f1916820190925261307591810190613c2c565b60015b613125576130846143d0565b806308c379a014156130be57506130996143e8565b806130a457506130c0565b8060405162461bcd60e51b815260040161063c9190613f1c565b505b60405162461bcd60e51b815260206004820152603460248201527f455243313135353a207472616e7366657220746f206e6f6e2d455243313135356044820152732932b1b2b4bb32b91034b6b83632b6b2b73a32b960611b606482015260840161063c565b6001600160e01b0319811663bc197c8160e01b14610cec5760405162461bcd60e51b815260040161063c90613f2f565b61315f82826111d7565b610a715761316c8161335f565b613177836020613371565b604051602001613188929190613dc3565b60408051601f198184030181529082905262461bcd60e51b825261063c91600401613f1c565b604080516001808252818301909252606091600091906020808301908036833701905050905082816000815181106131f657634e487b7160e01b600052603260045260246000fd5b602090810291909101015292915050565b6001600160a01b0384163b156111565760405163f23a6e6160e01b81526001600160a01b0385169063f23a6e619061324b9089908990889088908890600401613e96565b602060405180830381600087803b15801561326557600080fd5b505af1925050508015613295575060408051601f3d908101601f1916820190925261329291810190613c2c565b60015b6132a1576130846143d0565b6001600160e01b0319811663f23a6e6160e01b14610cec5760405162461bcd60e51b815260040161063c90613f2f565b600054610100900460ff166132f85760405162461bcd60e51b815260040161063c90614107565b6123d581613559565b600054610100900460ff166133285760405162461bcd60e51b815260040161063c90614107565b610a8d613589565b600054610100900460ff166133575760405162461bcd60e51b815260040161063c90614107565b610a8d6135bc565b606061066a6001600160a01b03831660145b606060006133808360026142a5565b61338b906002614262565b6001600160401b038111156133b057634e487b7160e01b600052604160045260246000fd5b6040519080825280601f01601f1916602001820160405280156133da576020820181803683370190505b509050600360fc1b8160008151811061340357634e487b7160e01b600052603260045260246000fd5b60200101906001600160f81b031916908160001a905350600f60fb1b8160018151811061344057634e487b7160e01b600052603260045260246000fd5b60200101906001600160f81b031916908160001a90535060006134648460026142a5565b61346f906001614262565b90505b6001811115613503576f181899199a1a9b1b9c1cb0b131b232b360811b85600f16601081106134b157634e487b7160e01b600052603260045260246000fd5b1a60f81b8282815181106134d557634e487b7160e01b600052603260045260246000fd5b60200101906001600160f81b031916908160001a90535060049490941c936134fc8161430b565b9050613472565b5083156135525760405162461bcd60e51b815260206004820181905260248201527f537472696e67733a20686578206c656e67746820696e73756666696369656e74604482015260640161063c565b9392505050565b600054610100900460ff166135805760405162461bcd60e51b815260040161063c90614107565b6123d5816129b9565b600054610100900460ff166135b05760405162461bcd60e51b815260040161063c90614107565b6097805460ff19169055565b600054610100900460ff166135e35760405162461bcd60e51b815260040161063c90614107565b610a8d336129cc565b8280546135f890614322565b90600052602060002090601f01602090048101928261361a5760008555613660565b82601f106136335782800160ff19823516178555613660565b82800160010185558215613660579182015b82811115613660578235825591602001919060010190613645565b5061366c9291506136e4565b5090565b82805461367c90614322565b90600052602060002090601f01602090048101928261369e5760008555613660565b82601f106136b757805160ff1916838001178555613660565b82800160010185558215613660579182015b828111156136605782518255916020019190600101906136c9565b5b8082111561366c57600081556001016136e5565b60006001600160401b03831115613712576137126143ba565b604051613729601f8501601f19166020018261435d565b80915083815284848401111561373e57600080fd5b83836020830137600060208583010152509392505050565b80356001600160a01b038116811461376d57600080fd5b919050565b600082601f830112613782578081fd5b8135602061378f8261423f565b60405161379c828261435d565b8381528281019150858301600585901b870184018810156137bb578586fd5b855b858110156137d9578135845292840192908401906001016137bd565b5090979650505050505050565b60008083601f8401126137f7578182fd5b5081356001600160401b0381111561380d578182fd5b60208301915083602082850101111561382557600080fd5b9250929050565b600082601f83011261383c578081fd5b613552838335602085016136f9565b60006020828403121561385c578081fd5b61355282613756565b60008060408385031215613877578081fd5b61388083613756565b915061388e60208401613756565b90509250929050565b600080600080600060a086880312156138ae578081fd5b6138b786613756565b94506138c560208701613756565b935060408601356001600160401b03808211156138e0578283fd5b6138ec89838a01613772565b94506060880135915080821115613901578283fd5b61390d89838a01613772565b93506080880135915080821115613922578283fd5b5061392f8882890161382c565b9150509295509295909350565b600080600080600060a08688031215613953578081fd5b61395c86613756565b945061396a60208701613756565b9350604086013592506060860135915060808601356001600160401b03811115613992578182fd5b61392f8882890161382c565b600080604083850312156139b0578182fd5b6139b983613756565b9150602083013580151581146139cd578182fd5b809150509250929050565b600080604083850312156139ea578182fd5b6139f383613756565b946020939093013593505050565b60008060008060008060808789031215613a19578384fd5b613a2287613756565b95506020870135945060408701356001600160401b0380821115613a44578586fd5b818901915089601f830112613a57578586fd5b813581811115613a65578687fd5b8a60208260051b8501011115613a79578687fd5b602083019650809550506060890135915080821115613a96578283fd5b50613aa389828a016137e6565b979a9699509497509295939492505050565b60008060008060608587031215613aca578182fd5b613ad385613756565b93506020850135925060408501356001600160401b03811115613af4578283fd5b613b00878288016137e6565b95989497509550505050565b60008060408385031215613b1e578182fd5b82356001600160401b0380821115613b34578384fd5b818501915085601f830112613b47578384fd5b81356020613b548261423f565b604051613b61828261435d565b8381528281019150858301600585901b870184018b1015613b80578889fd5b8896505b84871015613ba957613b9581613756565b835260019690960195918301918301613b84565b5096505086013592505080821115613bbf578283fd5b50613bcc85828601613772565b9150509250929050565b600060208284031215613be7578081fd5b5035919050565b60008060408385031215613c00578182fd5b8235915061388e60208401613756565b600060208284031215613c21578081fd5b813561355281614471565b600060208284031215613c3d578081fd5b815161355281614471565b60008060208385031215613c5a578182fd5b82356001600160401b03811115613c6f578283fd5b613c7b858286016137e6565b90969095509350505050565b600060208284031215613c98578081fd5b81356001600160401b03811115613cad578182fd5b8201601f81018413613cbd578182fd5b610978848235602084016136f9565b600060208284031215613cdd578081fd5b81356001600160801b0381168114613552578182fd5b600080600060408486031215613d07578081fd5b8335925060208401356001600160401b03811115613d23578182fd5b613d2f868287016137e6565b9497909650939450505050565b60008060408385031215613d4e578182fd5b50508035926020909101359150565b6000815180845260208085019450808401835b83811015613d8c57815187529582019590820190600101613d70565b509495945050505050565b60008151808452613daf8160208601602086016142db565b601f01601f19169290920160200192915050565b7f416363657373436f6e74726f6c3a206163636f756e7420000000000000000000815260008351613dfb8160178501602088016142db565b7001034b99036b4b9b9b4b733903937b6329607d1b6017918401918201528351613e2c8160288401602088016142db565b01602801949350505050565b6001600160a01b0386811682528516602082015260a060408201819052600090613e6490830186613d5d565b8281036060840152613e768186613d5d565b90508281036080840152613e8a8185613d97565b98975050505050505050565b6001600160a01b03868116825285166020820152604081018490526060810183905260a060808201819052600090613ed090830184613d97565b979650505050505050565b6020815260006135526020830184613d5d565b604081526000613f016040830185613d5d565b8281036020840152613f138185613d5d565b95945050505050565b6020815260006135526020830184613d97565b60208082526028908201527f455243313135353a204552433131353552656365697665722072656a656374656040820152676420746f6b656e7360c01b606082015260800190565b6020808252601490820152735469657220646f6573206e6f742065786973747360601b604082015260600190565b6020808252602e908201527f455243313135353a2063616c6c6572206973206e6f7420746f6b656e206f776e60408201526d195c881bdc88185c1c1c9bdd995960921b606082015260800190565b60208082526025908201527f455243313135353a207472616e7366657220746f20746865207a65726f206164604082015264647265737360d81b606082015260800190565b6020808252602e908201527f496e697469616c697a61626c653a20636f6e747261637420697320616c72656160408201526d191e481a5b9a5d1a585b1a5e995960921b606082015260800190565b6020808252602a908201527f455243313135353a20696e73756666696369656e742062616c616e636520666f60408201526939103a3930b739b332b960b11b606082015260800190565b60208082526017908201527f5468652057616c6c657420416464726573732069732030000000000000000000604082015260600190565b6020808252602b908201527f496e697469616c697a61626c653a20636f6e7472616374206973206e6f74206960408201526a6e697469616c697a696e6760a81b606082015260800190565b602080825260149082015273151bdad95b88105b1c9958591e48135a5b9d195960621b604082015260600190565b60208082526028908201527f455243313135353a2069647320616e6420616d6f756e7473206c656e677468206040820152670dad2e6dac2e8c6d60c31b606082015260800190565b60208082526021908201527f455243313135353a206d696e7420746f20746865207a65726f206164647265736040820152607360f81b606082015260800190565b83815260406020820152816040820152818360608301376000818301606090810191909152601f909201601f1916010192915050565b60006001600160401b03821115614258576142586143ba565b5060051b60200190565b60008219821115614275576142756143a4565b500190565b60006001600160401b0380831681851680830382111561429c5761429c6143a4565b01949350505050565b60008160001904831182151516156142bf576142bf6143a4565b500290565b6000828210156142d6576142d66143a4565b500390565b60005b838110156142f65781810151838201526020016142de565b83811115614305576000848401525b50505050565b60008161431a5761431a6143a4565b506000190190565b600181811c9082168061433657607f821691505b6020821081141561435757634e487b7160e01b600052602260045260246000fd5b50919050565b601f8201601f191681016001600160401b0381118282101715614382576143826143ba565b6040525050565b600060001982141561439d5761439d6143a4565b5060010190565b634e487b7160e01b600052601160045260246000fd5b634e487b7160e01b600052604160045260246000fd5b600060033d11156143e557600481823e5160e01c5b90565b600060443d10156143f65790565b6040516003193d81016004833e81513d6001600160401b03816024840111818411171561442557505050505090565b828501915081518181111561443d5750505050505090565b843d87010160208285010111156144575750505050505090565b6144666020828601018761435d565b509095945050505050565b6001600160e01b0319811681146123d557600080fdfea580a11e3704f34e24a96f7eb5e3f52a6a54bfa52e5908fd843ed3047d8b0956a2646970667358221220dab2142359c55ea5ebd91e9ab1d82eab5586188cf764a5db1b4ef03dbf64024b64736f6c63430008040033",
  "linkReferences": {},
  "deployedLinkReferences": {}
}